:020000040000FA
:1000000010B201205D0100006101000063010000E9
:1000100065010000670100006901000000000000A8
:100020000000000000000000000000006B01000064
:100030006D010000000000006F010000791E00004B
:1000400073010000750100007701000079010000D4
:100050007B0100007D0100007F01000081010000A4
:100060008301000085010000870100008901000074
:100070008B0100008D0100008F0100009101000044
:10008000930100009501000055080000990100004F
:100090009B0100009D0100009F010000A1010000E4
:1000A000A3010000A5010000A7010000A9010000B4
:1000B000AB010000AD010000AF010000B101000084
:1000C000B3010000750B0000B7010000B90100008A
:1000D000BB010000BD010000BF010000C101000024
:1000E000C3010000C5010000C701000000000000BE
:1000F000C9010000CB010000CD010000CF010000CC
:10010000D1010000D3010000D5010000D70100009B
:10011000D9010000DB010000DD010000DF0100006B
:10012000E1010000E3010000E5010000E70100003B
:10013000E9010000EB010000ED010000EF0100000B
:10014000F1010000F3010000DFF80CD000F088FAA4
:100150000048004799A1000010B20120254800473F
:10016000FEE7FEE7FEE7FEE7FEE7FEE7FEE7FEE767
:10017000FEE7FEE7FEE7FEE7FEE7FEE7FEE7FEE757
:10018000FEE7FEE7FEE7FEE7FEE7FEE7FEE7FEE747
:10019000FEE7FEE7FEE7FEE7FEE7FEE7FEE7FEE737
:1001A000FEE7FEE7FEE7FEE7FEE7FEE7FEE7FEE727
:1001B000FEE7FEE7FEE7FEE7FEE7FEE7FEE7FEE717
:1001C000FEE7FEE7FEE7FEE7FEE7FEE7FEE7FEE707
:1001D000FEE7FEE7FEE7FEE7FEE7FEE7FEE7FEE7F7
:1001E000FEE7FEE7FEE7FEE7FEE7FEE7FEE7FEE7E7
:1001F000FEE7FEE74901000040EA01039B0703D048
:1002000009E008C9121F08C0042AFAD203E011F855
:10021000013B00F8013B521EF9D27047D2B201E017
:1002200000F8012B491EFBD270470022F6E710B5FB
:1002300013460A4604461946FFF7F0FF204610BD54
:10024000421C10F8011B0029FBD1801A704703469D
:1002500011F8012B00F8012B002AF9D1184670473C
:1002600030B50B46014600202022012409E021FA86
:1002700002F59D4205D303FA02F5491B04FA02F583
:100280002844151EA2F10102F1DC30BD2DE9F05F1A
:100290000546002092469B468846064681464024F5
:1002A0001BE0284641464746224600F0FAF95346ED
:1002B0005A46C01A914110D311461846224600F002
:1002C000E1F92D1A67EB01084F4622460120002173
:1002D00000F0D8F917EB00094E41201EA4F10104EB
:1002E000DFDC484631462A464346BDE8F09F2DE90B
:1002F000FE4F804681EA0300C00F0C46009021F0BB
:10030000004123F00045B8EB0200A94105D2404668
:10031000214690461C460B46024623F000401043FF
:1003200047D0270DC7F30A00C3F30A510290401AC1
:10033000019040286BDAC3F3130040F4801B00984F
:10034000924620B10023D2EB030A63EB0B0B01981A
:100350005946C0F14002504600F094F906460D4659
:1003600050465946019A00F0ACF910EB0800614183
:10037000002487EA115284EAE7731A4340D0009AB6
:1003800062B3019A012A4FEA075215DC001B61EBA8
:1003900002014FF0004202EA0752CDE90042001C80
:1003A00041F5801132462B4600F0ACF903B0BDE8B0
:1003B000F08F40462146F9E7001B61EB0201001C6B
:1003C00041F5801300185B412018A2F5001747EB98
:1003D000030140EAD570B6196D4111E06D084FEA8E
:1003E000360645EAC0754FEA0752001B61EB020171
:1003F000001C41F5801149084FEA300000195141B5
:1004000032462B4603B0BDE8F04F00F06CB90098BF
:10041000012240000023D0EB020263EBE07300985E
:1004200021464FEAE074B8EB000061EB0401E9E714
:1004300083F000435BE781F0004158E72DE9FE4F70
:1004400081EA030404F0004421F0004100944FF0DD
:10045000000B23F0004350EA01045ED052EA03048B
:100460005BD0C3F30A54C1F30A552C44A4F2F3340D
:100470000194A0FB0254C1F3130141F48011C3F3B2
:10048000130343F4801301FB024400FB034E840A70
:10049000970A44EA815447EA8357A4FB0768029508
:1004A0008D0A05FB07854FEA932C04FB0C542705A6
:1004B000029D4FEA065847EA1637B5EB08056EEB82
:1004C000070C870E920E47EA811742EA8312A7FBB8
:1004D0000201B6EB0B0164EB00042B0D43EA0C3375
:1004E0005E1844EB1C50DA465146E7FB0201C5F3A7
:1004F00013044FEA0B3343EA14534FEA0432019CCE
:1005000043EA0603A4F10C040294009CCDE900B474
:1005100000F0F8F803B0BDE8F08F00200146F9E7DD
:100520002DE9F04D81EA030404F0004B21F0004571
:1005300014464FF0000A23F0004150EA050220D093
:1005400054EA01021DD0C5F30A570246C5F313034E
:10055000C1F31300C1F30A5640F4801543F480132D
:10056000A7EB0608101BD64608F2FD3873EB050012
:1005700002D308F1010801E092185B41B8F1000FC5
:1005800003DA00200146BDE8F08D00204FF4801111
:10059000064684460EE0171B73EB050705D3121BB6
:1005A00063EB050306434CEA010C49084FEA3000AF
:1005B00092185B4150EA0107EDD152EA030012D0D4
:1005C00082EA040083EA0501084305D0101BAB4111
:1005D00006D20122002306E000224FF0004302E091
:1005E0006FF0010253101AEB06004CEB085110EBB0
:1005F0000A0041EB0B01BDE8F04D00F074B8C1F307
:100600000A52C1F3130140F2FF3341F480119A42C0
:1006100002DA00200146704740F233439A42A2F2C8
:10062000334202DC524200F03CB800F02BB800002C
:1006300030B5041E71F1000404DB4FF00044404269
:1006400064EB0101141E73F1000405DB1C464FF03E
:100650000043524263EB0403994208BF904230BD0D
:10066000064C074D06E0E06840F0010394E80700FF
:1006700098471034AC42F6D3FFF76AFDB40201008C
:10068000D4020100202A04DB203A00FA02F1002003
:1006900070479140C2F1200320FA03F319439040C0
:1006A0007047202A04DB203A21FA02F0002170472B
:1006B00021FA02F3D040C2F12002914008431946CA
:1006C0007047202A06DBCB17203A41FA02F043EAB2
:1006D000E07306E041FA02F3D040C2F120029140FB
:1006E00008431946704710B5141E73F1000408DA68
:1006F000401C41F1000192185B411A4301D120F0E6
:10070000010010BD2DE9F04D92469B4611B1B1FAA2
:1007100081F202E0B0FA80F220329046FFF7B2FF99
:1007200004460F4640EA0A0041EA0B0153465A4686
:10073000084313D0114653EA010019D0C8F1400212
:100740005046FFF7AEFF05460E4650465946424614
:10075000FFF798FF084305D0012004E02046394602
:10076000BDE8F08D0020054346EAE0762C43374390
:100770000A986305E40AA0EB08000022FD0A44EA97
:1007800047540A3002D500200146E9E70105101957
:100790006941DDE9084500196941BDE8F04DA2E76E
:1007A00070B58C1810F8015B15F0070301D110F833
:1007B000013B2A1106D110F8012B03E010F8016B60
:1007C00001F8016B5B1EF9D12B0705D40023521EE3
:1007D0000DD401F8013BFAE710F8013BCB1A921C4B
:1007E00003E013F8015B01F8015B521EF9D5A14249
:1007F000D8D3002070BD00002DE9F04104460D461D
:10080000069E00201BE0002116E006F1E04700FBF9
:10081000021C4FEA5C0C57F82C7004EB010C05EB42
:100820000008C8EB08180CEB481C4FEA5C0CDFF81A
:10083000188048F82C70891C9142E6D3401C9842DD
:10084000E1D3BDE8F08100000000007001228A4081
:100850000262704710B502210348FFF7F7FF01203D
:100860000249086010BD000000300140F80000207F
:10087000026801238B409A43026070472DE9F041E2
:1008800007460C4615461E46DDF81880AD49781A15
:100890008F4273D009DCAC48384468B1B0F5805F52
:1008A00041D0B0F5005F3DD173E0B0F5805F6FD00F
:1008B000B0F5405FF7D10CE14FF08040806840F028
:1008C00001004FF08041886001230022214610463C
:1008D00000F03CFA012D09D19B48404240680121BB
:1008E000A140084398494942486008E09648404280
:1008F00040680121A1408843934949424860012E44
:1009000008D1924800680121A14008439049C1F8EC
:10091000000207E08D4801680120A04081438C4817
:10092000C0F800120AE14FF08040806840F00200F9
:100930004FF080418860012300222146184600F0D4
:1009400005FA012D07D1834841680120A0400143E9
:100950008048416006E07F4841680120A040814313
:100960007C484160B8F1010F09D17B480068012142
:10097000A14008437649C1F8000308E03EE076480C
:1009800001680120A04081437148C0F80013D5E000
:1009900069E04FF08040806840F004004FF08041F3
:1009A0008860012300222146022000F0CFF9012DAA
:1009B00007D16A4841680120A0400143674841606F
:1009C00006E0664841680120A040814363484160D9
:1009D000012E09D15D48103000680121A140084373
:1009E0005B49C1F8100208E0584810300168012046
:1009F000A04081435648C0F810129FE04FF080405D
:100A0000806840F010004FF0804188600123002290
:100A10002146032000F09AF9012D07D14948416889
:100A20000120A04001434748416006E04548406836
:100A30000121A140884343494860012E09D1434820
:100A4000203001680120A04001434148C0F8201235
:100A500008E03E48203000680121A14088433C491D
:100A6000C1F820026AE04FF08040806840F020002A
:100A70004FF080418860012300222146042000F0CD
:100A800065F9012D07D1364841680120A040014396
:100A90003348416006E0324840680121A140884364
:100AA0002F494860B8F1010F09D12B482030016867
:100AB0000120A04001432648C0F8201308E0264842
:100AC000203000680121A14088432149C1F820035A
:100AD00034E04FF08040806840F400104FF08041D7
:100AE0008860012300222146052000F02FF9012D06
:100AF00007D11C4840680121A140084319494860BA
:100B000006E0184840680121A14088431549486023
:100B1000012E09D10D48303001680120A040014369
:100B20000B48C0F8301208E0084830300068012156
:100B3000A14088430649C1F8300200BF00BFBDE8AC
:100B4000F08100000050014000F0FEBF00020140B3
:100B5000000001400020014000030140003001403E
:100B60000060014000800140026801238B401A436D
:100B70000260704710B5034800F006F8014800F025
:100B800077F810BD0020004001214160704701212D
:100B900081607047002181607047000030B50346D6
:100BA0000A463148184440B94FF08040806840F40C
:100BB00080104FF08041886000BF00BF107828BBD4
:100BC0000020D8609088401E5188491E40EA81204C
:100BD000117B40EA0150517B40EA415058619079C5
:100BE000401E4102D079401E41EA8031107A401EF9
:100BF00041EA4001507A401E41EA0010917A40EAF1
:100C00004150D17A40EA8160986100E000BF012044
:100C100018605860907B18B11846FFF7BBFF02E0E0
:100C20001846FFF7B4FF10481844D0B9907B60B164
:100C3000212000F01F040121A1404409A40004F177
:100C4000E024C4F8001100BF0AE0212000F01F04D6
:100C50000121A140054C450944F8251000BF00BF03
:100C600000BF00BF30BD000000E0FFBF80E100E03A
:100C7000C16841F00601C1607047000000F01F022A
:100C800001219140024A430942F8231070470000B5
:100C900080E100E000F01F0201219140024A430977
:100CA00042F823107047000080E100E000F01F02CE
:100CB000012191404209920002F1E022C2F80011A4
:100CC000704700F01F02012191404209920002F199
:100CD000E022C2F80011704700F01F02012191408C
:100CE0004209920002F1E022C2F8001170470000B0
:100CF0000121134A1162002000E0401C44F62061EB
:100D00008842FAD30E49496A21F002010C4A516225
:100D10001146896A0B4A1140094A91621146896A53
:100D2000094A1143064A91621146496A21F00401B9
:100D3000516200BF0249096B0029FBD070470000D7
:100D40000010034000FEE0FC3C00050070B50628E2
:100D50005CD2DFE800F0035CB9FDFCFB632A33D909
:100D6000062916D2FE4C246801EB81061F25B540EA
:100D7000AC43FC4DC5F80041A2F1640401EB8105D0
:100D8000AC40F84DD5F800512C43F64DC5F8004164
:100D90001AE00C2918D2F24C241D24688D1F05EB93
:100DA00085061F25B540AC43EE4DC5F80441A2F1C0
:100DB00064048D1F05EB8505AC40EA4DD5F8045160
:100DC0002C43E84DC5F80441E64C24684E00032549
:100DD000B540AC43E34D2C60632A01D9012400E007
:100DE00014464D00AC40DF4D2D682C43DD4D2C608A
:100DF000DD4C246801258D40AC43DB4D2C602C4636
:100E0000246803FA01F52C43D74D2C60BAE2632A1B
:100E100034D9062917D2D24C1034246801EB81064C
:100E20001F25B540AC43CF4DC5F81041A2F1640475
:100E300001EB8105AC40CB4DD5F810512C43C94D89
:100E4000C5F810411AE00C2918D2C54C1434246896
:100E50008D1F05EB85061F25B540AC43C14DC5F878
:100E60001441A2F164048D1F05EB8505AC40BD4D16
:100E7000D5F814512C43BB4DC5F81441B94C6468E6
:100E80004E000325B540AC43B64D6C60632A01D9D2
:100E9000012400E014464D00AC40B24D6D682C4377
:100EA000B04D6C60B04C1034246801258D40AC43CB
:100EB000AD4D10352C602C46246803FA01F52C4307
:100EC000A94D10352C605DE2632A34D9062917D26A
:100ED000A34C2034246801EB81061F25B540AC43A8
:100EE000A04DC5F82041A2F1640401EB8105AC409E
:100EF0009C4DD5F820512C439A4DC5F820411AE05D
:100F00000C2918D2964C243424688D1F05EB8506D5
:100F10001F25B540AC43934DC5F82441A2F16404AC
:100F20008D1F05EB8505AC408E4DD5F824512C4323
:100F30008C4DC5F824418B4CA4684E000325B54068
:100F4000AC43884DAC60632A05D902E067E1CFE08D
:100F50001BE0012400E014464D00AC40814DAD681B
:100F60002C43804DAC60804C2034246801258D409A
:100F7000AC437D4D20352C602C46246803FA01F5E6
:100F80002C43794D20352C60FCE1632A70D9062969
:100F900017D2734C6034246801EB81061F25B540DD
:100FA000AC43704DC5F86041A2F1640401EB8105CA
:100FB000AC406C4DD5F860512C436A4DC5F860418A
:100FC00056E00C2919D2664C643424688D1F05EB59
:100FD00085061F25B540AC43624DC5F86441A2F1BA
:100FE00064048D1F05EB8505AC405E4DD5F864515A
:100FF0002C435C4DC5F864413AE012291BD2584C91
:1010000068342468A1F10C0505EB85061F25B54061
:10101000AC43544DC5F86841A2F16404A1F10C053C
:1010200005EB8505AC404F4DD5F868512C434D4D2F
:10103000C5F868411CE018291AD2494C6C34246860
:10104000A1F1120505EB85061F25B540AC43454DC2
:10105000C5F86C41A2F16404A1F1120505EB850508
:10106000AC40404DD5F86C512C433E4DC5F86C4119
:10107000102914D23B4C246A4E000325B540AC43E2
:10108000384D2C62632A01D9012400E014464D003A
:10109000AC40344D2D6A2C43324D2C6217E0314C5C
:1010A000646AA1F110056E000325B540AC432D4DD7
:1010B0006C62632A01D9012400E01446A1F11005F5
:1010C0006D00AC40274D6D6A2C43264D6C62264C5A
:1010D0004034256801248C40A543234C40342560CE
:1010E000246803FA01F52C431F4D40352C6049E17B
:1010F000632A57D9062917D2194C7034246801EB9A
:1011000081061F25B540AC43164DC5F87041A2F1CC
:10111000640401EB8105AC40124DD5F870512C43AD
:10112000104DC5F870413DE00C291FD20C4C7434B1
:1011300024688D1F05EB85061F25B540AC43094D7E
:10114000C5F87441A2F164048D1F05EB8505AC4020
:10115000044DD5F874512C43024DC5F8744121E07B
:10116000000101400000014000060140122919D28F
:10117000854C2468A1F10C0505EB85061F25B540BB
:10118000AC43824DC5F87841A2F16404A1F10C058D
:1011900005EB8505AC407D4DD5F878512C437B4D52
:1011A000C5F87841102914D2784C246B4E000325E1
:1011B000B540AC43754D2C63632A01D9012400E08E
:1011C00014464D00AC40714D2D6B2C436F4D2C637C
:1011D00017E06E4C646BA1F110056E000325B5405D
:1011E000AC436A4D6C63632A01D9012400E01446C4
:1011F000A1F110056D00AC40644D6D6B2C43634D47
:101200006C63634C256801248C40A543604C2560C9
:10121000246803FA01F52C435D4D2C60B2E0632A8B
:1012200070D9062917D2584C0834246801EB81067E
:101230001F25B540AC43554DC5F88041A2F164046B
:1012400001EB8105AC40514DD5F880512C434F4DF9
:10125000C5F8804156E00C2919D24B4C0C34246857
:101260008D1F05EB85061F25B540AC43474DC5F8DE
:101270008441A2F164048D1F05EB8505AC40434D0C
:10128000D5F884512C43414DC5F884413AE01229E8
:101290001BD23D4C10342468A1F10C0505EB8506EA
:1012A0001F25B540AC43394DC5F88841A2F164040F
:1012B000A1F10C0505EB8505AC40344DD5F88851FE
:1012C0002C43324DC5F888411CE018291AD22E4C07
:1012D00014342468A1F1120505EB85061F25B540DD
:1012E000AC432A4DC5F88C41A2F16404A1F112056A
:1012F00005EB8505AC40254DD5F88C512C43234D8D
:10130000C5F88C41102914D2204C246C4E000325C2
:10131000B540AC431D4D2C64632A01D9012400E083
:1013200014464D00AC40194D2D6C2C43174D2C64C8
:1013300017E0164C646CA1F110056E000325B54052
:10134000AC43124D6C64632A01D9012400E01446B9
:10135000A1F110056D00AC400C4D6D6C2C430B4D94
:101360006C640B4C1034256801248C40A543084C58
:1013700010342560246803FA01F52C43044D103520
:101380002C6000BF00BF70BD78010140000001402B
:1013900050060140FEB505460F461A4890F84E002B
:1013A000022801D12E4600E06E020120009002AB1F
:1013B000022231460190112000F08CF900BF4FF05D
:1013C0004020006B00F020000028F8D020204FF0D3
:1013D00040210863002405E04FF04020006A47F8F0
:1013E0002400641C802CF7D300BF4FF04020006B1A
:1013F00000F002000028F8D002204FF040210863DE
:10140000FEBD000040010020FEB505460F461C4809
:1014100090F84E00022801D12E4600E06E02002016
:10142000012102AB0222CDE900103146182000F064
:1014300051F900BF4FF04020006B00F01000002871
:10144000F8D010204FF040210863002405E057F841
:1014500024004FF040210862641C802CF7D3022046
:101460004FF04021086300BF4FF04020006B00F0B8
:1014700002000028F8D002204FF040210863FEBD92
:101480004001002000B587B04FF08040406820F058
:1014900030004FF08041486089480068894988429F
:1014A00006D90805406840F020000905486007E0BB
:1014B0004FF08040406840F010004FF0804148609D
:1014C0004FF08040806840F000504FF080418860CD
:1014D00088114FF04021C8624FF478608862002084
:1014E00001F0FCFA052141EA002040F440204FF0D1
:1014F0004021C86200BF4FF04020C06A00F00200E7
:101500000028F8D06FF47E404FF0402148634FF040
:10151000FF108863002000900346024601460190B8
:1015200000F0D8F80020009006AB02224FF4D571ED
:101530000190082000F0CEF80698B0F5D57F04D1D0
:101540000120614981F84E0003E000205E4981F8E6
:101550004E0000BF0020009006AB02220146019021
:10156000372000F0B7F80698B0F5907F02D0012040
:1015700007B000BD544890F84E00012809D1002062
:10158000009006AB022251490190292000F0A2F8F8
:1015900008E00020009006AB02224D49019029206E
:1015A00000F098F80121069801EAD0700028D1D007
:1015B0000698C0F3807018B10220434981F84E00AC
:1015C0000020009002AB012201460190022000F0B1
:1015D00081F802A809F018F90020009006AB022259
:1015E00001460190032000F075F80698000C36497A
:1015F000A1F84C000020009001900846B0F84C0083
:10160000010402AB0122092000F064F802A809F0ED
:101610006BF92D48806CB0F5007F01D20120A7E75F
:101620004FF04020C06A4FF6047188434FF04021CC
:10163000C862012001F052FA042141EA00204FF073
:101640004021C96A08434FF04021C8620020009041
:1016500001901D48B0F84C00010406AB032207209E
:1016600000F038F80020009001901748B0F84C00C6
:10167000010406AB0222372000F02CF80020009075
:1016800006AB022211460190062000F023F84FF02D
:101690004020806A40F002004FF040218862002024
:1016A000009006AB022249150190102000F012F8BC
:1016B0004FF400704FF040214860002058E70000D0
:1016C0000000002000B4C40440010020000010C04D
:1016D00000001080F0B5DDE905454FF04026B1600F
:1016E000002646EA006646EA445646EA024646EACC
:1016F00005164FF04027FE6000BF4FF04026366BC6
:1017000006F00106002EF8D001264FF040273E6378
:10171000022A03D13E4636691E6020E0012A1ED10E
:101720004FF04026F769B669360E67F31F261E6034
:101730004FF04026B7697669360E67F31F265E6064
:101740004FF0402677693669360E67F31F269E6094
:101750004FF040263669002707EB0626DE60F0BD15
:101760004FF08042926842F080624FF080439A606E
:101770001A46526822F00C025A601A46526842F029
:1017800004025A60C278022343EA02124FF0F04387
:101790001A6002785205837842EA0352437842EA9B
:1017A000C342037942EAC332437942EA433283793E
:1017B00042EA8322C37942EA8312037A42EAC302ED
:1017C000437A1A434FF0F0435A6002221A610278BA
:1017D0003AB1012A07D0022A07D0032A07D10B21E8
:1017E00007E00C2105E00C2103E00D2101E00D21B3
:1017F00000BF00BF0B4A126852084FF47A73B2FB65
:10180000F3F2930101228A40B3FBF2F242F48052D8
:101810004FF0F0439A6000BF4FF0F0425269002A47
:10182000FAD07047000000202DE9F04180460F46B5
:10183000164601224146254802F00AFC2449087058
:10184000B60800251BE0A902204801F098FF214BB3
:101850004FF4806220491D4802F0FAFC1C490870D0
:10186000002409E01C4850F8241007F1E04000EB88
:10187000852040F82410641CFF2CF3D96D1CB5EBB7
:10188000162FE0D3F0B2D8B1A902104801F077FFCB
:10189000104B4FF4806210490C4802F0D9FC0C49FF
:1018A0000870002409E00C4850F8241007F1E040CB
:1018B00000EB852040F82410641CF0B2A042F2D85E
:1018C000024801F04BFFBDE8F081000030610120CB
:1018D000F1000020F400002058710120016821F07F
:1018E000080101607047000070B505460C461646B9
:1018F00012211348FEF7BCFF0321124800F083FABF
:10190000C4F307410F4800F07EFAC4F307210D48E5
:1019100000F079FAE1B20B4800F075FA05E0FF211A
:10192000084800F070FA28706D1C3000A6F1010123
:101930008EB2F4D112210248FFF716F970BD0000F3
:101940000080014000C002402DE9F05F07460E46CE
:1019500014464FF00008C146C2460025AB4606F0CB
:10196000FF0ACAF10000C5B22046E11704EB11617D
:10197000C1F30728E11704EB11610912A4EB01215F
:1019800001F0FF09BAF1000F20D1B8F1000F05D125
:1019900022463146384600F069F864E009E04FF429
:1019A00080723146384600F061F806F5807607F51A
:1019B00080775FEA0800A8F1010101F0FF08EED18D
:1019C0004A463146384600F051F84CE0B8F1000F75
:1019D00018D1A94510DDA9EB050000F0FF0B2A4640
:1019E0003146384600F042F82E442F445A463146DC
:1019F000384600F03BF836E022463146384600F0E3
:101A000035F830E0601B84B22046E11704EB116129
:101A1000C1F30728E11704EB11610912A4EB0121BE
:101A200001F0FF092A463146384600F01FF82E44DF
:101A30002F4409E04FF480723146384600F016F822
:101A400006F5807607F580775FEA0800A8F10101C6
:101A500001F0FF08EED1B9F1000F04D04A4631463B
:101A6000384600F003F8BDE8F09F000070B5054669
:101A70000C46164600F0EEF812211748FEF7F8FE65
:101A80000221164800F0BFF9C4F30741134800F0E3
:101A9000BAF9C4F30721114800F0B5F9E1B20F48D3
:101AA00000F0B1F9B6F5807F04DD4FF480760CA02C
:101AB00000F080FB04E02978084800F0A4F96D1CD0
:101AC0003000A6F101018EB2F5D112210248FFF7D4
:101AD0004BF800F093F870BD0080014000C0024058
:101AE0005350495F464C4153485F50616765577298
:101AF00069746520746F6F206C6172676521200DB9
:101B00000A00000010B5002412210F48FEF7B0FEB5
:101B1000AB210E4800F077F9FF210C4800F073F973
:101B2000FF210A4800F06FF9FF21084800F06BF927
:101B3000FF21064800F067F9044612210248FFF72A
:101B400013F8204610BD00000080014000C0024094
:101B50002DE9F0410024002500260027122111481C
:101B6000FEF786FE9F21104800F04DF9FF210E4838
:101B700000F049F90546FF210B4800F044F90646FC
:101B8000FF21094800F03FF9074612210548FEF7FA
:101B9000EBFF280440EA062040EA07042046BDE89F
:101BA000F08100000080014000C0024010B50446F2
:101BB00000F050F800F022F812210E48FEF758FE0F
:101BC00020210D4800F01FF9C4F307410A4800F036
:101BD0001AF9C4F30721084800F015F9E1B20648E4
:101BE00000F011F912210348FEF7BEFF00F006F8DD
:101BF00010BD00000080014000C0024010B500246C
:101C000012211148FEF734FE0521104800F0FBF8C0
:101C10004FF480500E49086000BFFF210B4800F0D0
:101C2000F2F8C4B20A490868411E094A116000B9B5
:101C300010BD04F001000028EFD112210248FEF788
:101C400093FF00BFF4E700000080014000C00240A5
:101C50002801002010B512210548FEF709FE0621D3
:101C6000044800F0D0F812210148FEF77DFF10BDB6
:101C70000080014000C002401FB500200346012241
:101C8000122100901948FEF7F9FD00237522132157
:101C90000520FFF75BF80023762216210520FFF7C9
:101CA00055F80123762217210520FFF74FF8002071
:101CB0008DF809008DF804008DF805008DF80600F8
:101CC00008208DF8070001208DF8080000208DF80D
:101CD0000A008DF80B008DF80C0001A9044800F0F3
:101CE0001BF8034800F08AF81FBD00000080014087
:101CF00000C0024010B512210548FEF7B9FDAB2126
:101D0000044800F080F812210148FEF72DFF10BDB5
:101D10000080014000C0024070B505460C463548C1
:101D2000284418B1B0F5805F12D108E04FF0804030
:101D3000806840F480304FF08041886008E04FF0C8
:101D40008040806840F480304FF08041886000BF60
:101D500000BF2846FFF7C2FD2868274908402860D1
:101D600020788002617840EA0120A17840EA412190
:101D7000E078401E41EA0010217940EA01306179A3
:101D8000084329680843286001202861E86820F496
:101D90000570E860A0798000E17940EA0110217ABD
:101DA00040EA4120E9680843E8601248284418B135
:101DB000B0F5805F1CD10DE0A079E1790843217A6C
:101DC000084318B12E20FEF771FF02E02E20FEF727
:101DD00055FF0DE0A079E1790843217A084318B155
:101DE0003B20FEF763FF02E03B20FEF747FF00BF0A
:101DF00000BF70BD0040FDBF08E0FDFF016841F07D
:101E00000801016070470246516000BF906800F011
:101E100008000028FAD050687047000002480068A7
:101E2000401C014908607047240100201FB504468A
:101E30000123642202210020FEF788FF0023642290
:101E400003211846FEF782FF009400208DF804005D
:101E50008DF805008DF806008DF808008DF80A0051
:101E60008DF80C006946034800F0CEF8014800F0F8
:101E70009AF91FBD0000024010B5FFF7CFFF00F038
:101E800001F810BD10B5012007F0EAFB10BD0000FD
:101E900030B5164800684FF47A72B0FBF2F1481E74
:101EA000B0F1807F01D301201BE0481E4FF0E022FB
:101EB000506150170722002807DA53071D0E0C4BFC
:101EC00000F00F04241F1D5503E053071C0E094B9F
:101ED0001C5400BF00204FF0E022906107201061E9
:101EE000002008B100BFFEE730BD00000000002068
:101EF00018ED00E000E400E04FF08040006800F0E2
:101F00000400B0B14FF08040006800F0020018B14A
:101F10001F48204908602EE01F48006800F00100BB
:101F200018B11E481B49086025E019481949086086
:101F300021E04FF08040006800F00100B8B1164881
:101F4000406A00F0020018B111481249086002E02E
:101F50000F48104908600F4800680521B0FBF1F0F8
:101F6000C0EB00100001C0080A49086003E04FF40C
:101F7000FA40084908604FF08040406800F00100D6
:101F800020B104480068400802490860704700001A
:101F9000002D31010000002000100340005A6202B1
:101FA00000B54FF08040806840F480004FF08041E1
:101FB00088600420052813D2DFE800F00306090C2E
:101FC0000F0009F061F80BE009F09CF808E009F057
:101FD00075F805E009F0D0F802E009F0ADF800BFAF
:101FE00000BF4FF08040406820F001004FF080417A
:101FF0004860084640684860FFF77EFF00BD4168C2
:1020000021F400714160704770B504460D46604888
:10201000204448B1B0F5805F0FD0B0F5005F15D017
:10202000B0F5405F24D11AE04FF08040806840F462
:1020300000604FF0804188601AE04FF08040806877
:1020400040F480504FF08041886011E04FF08040B4
:10205000806840F400504FF08041886008E04FF005
:102060008040806840F480404FF08041886000BF2D
:1020700000BF2046FFF7C3FF606840F40050606077
:10208000A0686FF30D00A06042480068000929684D
:10209000B0FBF1F0401EA1680843A060606820F426
:1020A0007C00606028798004697940EAC140A979A0
:1020B00040EA8150616808436060E06880B2E06097
:1020C000E8790004697A40EA0160E1680843E06069
:1020D000606820F07F4060606068E97A40EA0160F3
:1020E0006060606844F2140188436060287A0001EF
:1020F000A97A40EA8100297B40EA8130616808437F
:1021000060602348204448B1B0F5805F14D0B0F53A
:10211000005F1FD0B0F5405F38D129E0287AA97A56
:102120000843297B084318B12720FEF7CAFD02E0C7
:102130002720FEF7AFFD29E0287AA97A0843297BFA
:10214000084318B12820FEF7BCFD02E02820FEF766
:10215000A1FD1BE0287AA97A0843297B084318B11E
:102160002920FEF7AEFD02E02920FEF793FD0DE0E9
:10217000287AA97A0843297B084318B12A20FEF758
:10218000A0FD02E02A20FEF785FD00BF00BF70BD64
:102190000000FEBF000000200146486800F001007A
:1021A00080F001007047416841F400714160704760
:1021B000016070470FB4054B10B503A9044A02989B
:1021C00000F0CAF810BC5DF814FB0000114A0000D2
:1021D0003801002002E008C8121F08C1002AFAD105
:1021E00070477047002001E001C1121F002AFBD197
:1021F000704700002DE9FF5FDDE90220010DDDF8E9
:1022000038B0024318D044F61050A1F2FF314143D8
:102210000D140F98012820D0A5EB0B00401C5FEA9D
:10222000000A4FF00004474EDFF81C91A0465046CC
:1022300016D5CAF1000728E00F98012443A201280F
:1022400008D0002100980F9BC0E90021C0E902439B
:10225000BDE8FF9F6FEA0B01F4E7CBF10000DEE77A
:10226000074612E0F80707D0224633464046494663
:10227000FEF7E4F880468946224633461046194662
:10228000FEF7DCF804460E467F10002FEAD1DDE9A8
:102290000201BAF1000F42464B4602DAFEF7CEF8D1
:1022A00001E0FEF73DF904460E460022284BFEF7FA
:1022B000BFF903D84FF0FF30014607E00022254B5D
:1022C00020463146FEF713F8FEF799F9102409E08D
:1022D000002C0ADB0A220023FDF7D8FF019B3032D5
:1022E0001A55641E50EA0102F2D1641C019AC4F12D
:1022F000110314440F9A012A03D0012208430DD17F
:102300000AE0084304D000204FF0110B0F9080E743
:10231000A3EB0B056D1E0DE05B4504DD4FF00002E5
:1023200005F1010504E003DA4FF00002A5F1010513
:10233000002AECD000980F99C0E90231C0E90045AD
:1023400086E70000000024400000F03F300000005D
:102350000000F0430000E03F2DE9FF4F95B09B46A1
:102360008946064600250FE2252877D10024274616
:10237000F84A0121059400E0044316F8013F203B90
:1023800001FA03F01042F7D130782A2811D06FF00B
:102390002F033078A0F13002092A16D8059A44F0AC
:1023A000020402EB820203EB42021044761C059009
:1023B000EFE759F8042B0592002A03DA504244F45F
:1023C0000054059044F00204761C30782E2816D173
:1023D00016F8010F44F004042A280DD06FF02F02E4
:1023E0003078A0F13003092B09D807EB870302EB03
:1023F0004303C718761CF3E759F8047B761C307842
:102400006C280FD006DC4C2817D068280DD06A281D
:1024100014D104E0742810D07A280FD10DE044F4D0
:1024200000140AE044F4801401E044F4401472788B
:10243000824202D104F58014761C761C307866281E
:102440000BD013DC582877D009DC002875D045283C
:10245000F6D04628F4D047281AD19DE118E0632829
:1024600035D0642879D0652812D195E1702873D0D1
:1024700008DC6728F1D069286FD06E280DD06F284E
:1024800006D1B5E073282CD0752875D0782874D083
:102490005A46179990476D1C75E1C4F30250022803
:1024A00009D003280DD0D9F8001004280DD00D60F4
:1024B00009F1040967E1D9F80010EA17C1E90052EF
:1024C000F6E7D9F800100D80F2E70D70F0E719F883
:1024D000041B8DF8001000208DF80100EA46012051
:1024E00003E059F804AB4FF0FF3061074FF00001F3
:1024F00002D40DE008F101018846B9420FDA8045A7
:10250000F8DB1AF808100029F4D108E008F10101FD
:1025100088468142FADB1AF808100029F6D105989E
:102520005B46A0EB080721463846179A00F094FA5C
:10253000284400EB080507E04DE029E10DE01AF81A
:10254000010B5A4617999047B8F10108F7D25B463C
:1025500021463846179A13E142E00A220092C4F35A
:1025600002524FF0000A022A08D059F804CB032A7D
:102570004FEAEC710AD00DE029E02AE009F10701E9
:1025800021F00702F2E802C1914609E00FFA8CFC43
:102590004FEAEC71042A03D14FFA8CFC4FEAEC713C
:1025A000002907DA0A460021DCF1000C61EB020188
:1025B0002D2202E0220504D52B228DF804200122D1
:1025C00003E0E20701D02022F7E7904659E00A2114
:1025D00002E010220DE010214FF0000A00910BE004
:1025E00010224FF0000A44F004040827009203E090
:1025F00008224FF0000A0092C4F30252022A05D0CA
:1026000059F804CB0021032A08D009E009F1070199
:1026100021F00702F2E802C1914605E01FFA8CFCA6
:10262000042A01D10CF0FF0C4FF00008220728D536
:10263000702806D0009B83F0100353EA0A0305D0EC
:102640000EE040228DF80420012208E05CEA01023D
:1026500006D030228DF804208DF805000222904625
:10266000009B83F0080353EA0A030AD15CEA0102E3
:1026700001D1620705D530228DF804204FF0010802
:102680007F1E582804D034A003900EA802900DE0BD
:1026900036A0F9E753466046009AFDF7F7FD8446F9
:1026A0000398825C0298401E029002705CEA01006E
:1026B000F0D1029806A9081A00F1200A600702D595
:1026C00024F4803400E00127574502DDA7EB0A001F
:1026D00000E0002000EB0A01009005984144401AF8
:1026E0000590E00306D45B462146179A059800F052
:1026F000B3F90544002706E001A85A46C05D1799C2
:1027000090476D1C7F1C4745F6DBE0030CD55B460C
:102710002146179A059800F09FF9054404E03020FF
:102720005A46179990476D1C0099481E0090002941
:10273000F5DC08E0029802995A460078491C02919B
:10274000179990476D1CBAF10001AAF1010AF1DC5A
:1027500065E1000009280100303132333435363765
:1027600038396162636465660000000030313233DD
:10277000343536373839414243444546000000007D
:1027800000F058F90544761C307800287FF4ECAD51
:1027900019B02846BDE8F08F620700D4062709F17A
:1027A000070222F0070CFCE80223E14603F0004890
:1027B0005FEA080C02D00FF2702C0DE05FEA045CB7
:1027C00002D50FF2682C07E05FEAC47C02D00FF25A
:1027D000602C01E0AFF2700C4FF0FF3823F00043A3
:1027E000CDF850C065280CD006DC452809D0462815
:1027F0001DD047283DD13DE0662818D067287ED1FE
:1028000038E00021112F01DB112000E0781CCDE918
:10281000000106A90EA8FFF7EDFCDDE90F010E9AF5
:1028200003910021009207F1010A04914DE04FF05D
:1028300000400097CDE9011006A90EA8FFF7DAFCC9
:10284000DDE90F0203920E9B11990022DDF80CA026
:102850000093049211B9791C00EB010AB7EB0A004E
:1028600004D4C0F1FF3007F1010A0490AAEB07007D
:10287000019044E0012F00DA01270021112F01DD32
:10288000112000E03846CDE9000106A90EA8FFF7A7
:10289000B1FCDDE90F010E9A039100210491009231
:1028A000BA4621070CD40399514500DA8A46BAF199
:1028B000010F05DD009AAAF10101515C302908D011
:1028C000B84202DA10F1040F06DA0121CDE9011055
:1028D00015E0AAF10101E9E7002805DC04990144AB
:1028E0000491AAEB000102E0411C514500DD8A463B
:1028F0000499401A401C01904FF0004002902007BC
:1029000004D40198504501DBCDF8048000208DF8F7
:102910004F0002980DF14F07B0F1004F25D02B204A
:102920000E9002984FF0020800280CDA4042029004
:102930002D200E9007E00A210298FDF791FC30311E
:10294000029007F8011DB8F10001A8F10108F2DCBE
:1029500002980028EFD1791E0E980870307800F0A8
:10296000200040F0450007F8020D12A8C01B00F13E
:1029700007081498007800B1012000EB0A010198C3
:1029800001EBE07105984144401A401E0590E003B8
:1029900006D45B462146179A059800F05DF8054479
:1029A0001498007818B15A46179990476D1CE003A7
:1029B00024D55B462146179A059800F04DF805444A
:1029C0001CE00498002807DBDDE90301884203DDF1
:1029D0000098405C179901E0179930205A469047BB
:1029E000049805F10105401C04900198401E0190D7
:1029F00004D12E205A46179990476D1CBAF1000158
:102A0000AAF1010ADDDC05E017F8010B5A46179917
:102A100090476D1CB8F10001A8F10108F4DC5B4699
:102A20002146179A0598ABE62D0000002B00000008
:102A3000200000002DE9F041044600251E461746FF
:102A4000880404D405E039462020B0476D1C641E7C
:102A5000F9D52846BDE8F0812DE9F041044600256E
:102A60001E469046C80301D5302700E02027880481
:102A700004D505E041463846B0476D1C641EF9D5C3
:102A80002846BDE8F08110B5002303220B21052064
:102A9000FEF75CF9012303220A210520FEF756F90F
:102AA0000123032209210520FEF750F90123032207
:102AB00008210520FEF74AF90123032207210520FA
:102AC000FEF744F90123032206210520FEF73EF913
:102AD000FEF7D8FCC4B2204610BD000010B5024677
:102AE000002000214FF080435B68C3F30113012BEA
:102AF00009D11E4B1B685B080AB91D4C00E01D4C38
:102B0000B3FBF4F10FE04FF080435B68C3F30113B4
:102B1000022B08D1154B1B689B080AB9144C00E026
:102B2000144CB3FBF4F1802901D980201CE040292A
:102B300001D9402018E0202901D9202014E01029D3
:102B400001D9102010E0082901D908200CE004293F
:102B500001D9042008E0022901D9022004E001295A
:102B600001D9012000E0002010BD0000000000207D
:102B7000E0930400C0E1E40070B504460D46002077
:102B8000E070401EA0632946204607F019FE08B1F8
:102B9000042070BD04F23A2002F067FC4AF6552189
:102BA000884201D00320F4E794F83C00E92807D0DC
:102BB00094F83C00EB2803D094F83C00E82811D1AD
:102BC000032209A104F1720007F0D2FD08B9002028
:102BD000DFE7052205A104F18E0007F0C9FD08B961
:102BE0000020D6E70220D4E7464154004641543342
:102BF00032000000024600E0521C107810B110783C
:102C00008842F9D1107870470246891E106A801EEA
:102C1000884201D8002070475389506B03FB0100A4
:102C2000F9E700002DE9F04780460C4604F11A0050
:102C300002F01BFC10B10020BDE8F087207800F006
:102C40003F00401E00EB800101EBC0054FF0010981
:102C5000002621E01849895D081902F006FC0746A4
:102C6000B9F1000F11D0FF2D0BD2384601F05EFCF8
:102C7000824629466D1C38F8110001F057FC824548
:102C800001D00020D8E7B94605E04FF6FF70874233
:102C900001D00020D0E7761C0D2EDBD3207800F089
:102CA000400038B1B9F1000F04D038F8150008B170
:102CB0000020C1E70120BFE75CFE00002DE9F047DE
:102CC00082468846DAF80040B8F1000F06D16769FD
:102CD00017B1206AB84215D8012713E04146504683
:102CE00001F00EFF0546022D02D20120BDE8F0875B
:102CF000681C08B92846F9E7206AA84201D9284685
:102D0000F4E74746A06908B90020EFE700264745E9
:102D100018D17E1C206AB04200D8022631465046A7
:102D200001F0EEFE0546012D01D0681C08B92846C9
:102D3000DCE73DB16569022D03D3206AA84200D9C2
:102D40002F460026E6B93E4600BF761C206AB042F8
:102D500004D80226BE4201D90020C7E731465046BA
:102D600001F0CEFE054605B909E0012D01D0681C31
:102D700008B92846BAE7BE42E7D10020B6E700BF4F
:102D80004FF0FF323146204607F0BCFE8146B9F1D4
:102D9000000F08D1B8F1000F05D032464146204659
:102DA00007F0B0FE8146B9F1000F0DD16661206ACF
:102DB000801EA169814202D8A069401EA0612079CD
:102DC00040F00100207107E0B9F1010F02D14FF08E
:102DD000FF3000E001200646304687E72DE9F34F3B
:102DE00083B08146049800680090D9F80000076914
:102DF000002500BF684608F046FA02900298401C81
:102E000018B9062005B0BDE8F08F0298B0F5803FF4
:102E100005D30298020C28466D1C27F81020029852
:102E200084B2202C03DB2F2C01D05C2C00D111E0CC
:102E3000802C06DA214693A0FFF7DCFE08B10620BD
:102E4000E0E7FF2D01D30620DCE728466D1C27F8BC
:102E50001040CFE700BF02E00098401C00900098AF
:102E600000782F28F8D0009800785C28F4D00099DA
:102E700004980160202C01DA042000E000200646BE
:102E8000012D04D1681E37F810002E280BD0022D1A
:102E900024D1681E37F810002E281FD1A81E37F83D
:102EA00010002E281AD1002027F8150080460AE0CD
:102EB000A84501D22E2100E0202109F1200000F8D0
:102EC000081008F10108B8F10B0FF1D346F020010A
:102ED00009F1200000F80810002093E708E0681EC0
:102EE00037F81040202C02D02E2C00D002E06D1EAE
:102EF000002DF4D100BF002027F815000DB90620E1
:102F000080E74FF0000A01E00AF1010A37F81A00E1
:102F10002028F9D0BAF1000F03D137F81A002E2873
:102F200001D146F0030600E06D1E25B1681E37F89A
:102F300010002E28F8D10B22202109F1200007F0E3
:102F400036FC4FF00008C3460820019000BF5046F1
:102F50000AF1010A37F8104004B968E0202C03D0C8
:102F60002E2C04D1AA4502D046F00306EFE70198C3
:102F7000804501D2AA4516D101980B2802D146F00E
:102F8000030654E0AA4501D046F00306AA4500D93D
:102F90004DE0AA464FF008080B2001904FEA8B60E5
:102FA0004FEA106BD3E7802C0EDB46F0020640F2AE
:102FB000B511204601F09AFA044604F0800018B1D9
:102FC00004F07F0032490C5CFF2C10DD0198401E9C
:102FD000404504D846F00306DDF80480B7E7221226
:102FE000404608F1010809F120010A5418E024B113
:102FF000214628A0FFF7FEFD18B15F2446F0030626
:103000000EE0412C03DB5A2C01DC4BF0020B612C4F
:1030100006DB7A2C04DC4BF0010BA4F1200084B217
:10302000404608F1010809F120010C548FE700BF68
:1030300099F82000E52802D1052089F820000198A0
:10304000082803D14FEA8B604FEA106B0BF00C009D
:103050000C2803D00BF00300032801D146F0020630
:1030600006F0020048B90BF0010008B146F0100666
:103070000BF0040008B146F008062B2000F80960A8
:103080000020BFE6222A3A3C3E3F7C7F0000000041
:1030900069FE00002B2C3B3D5B5D0000014609B141
:1030A000002070470020FCE7014609B1002070476E
:1030B0000020FCE72DE9F04104460E46D4F80080DC
:1030C0000021204600F0DFF90546EDB9002700BFDA
:1030D0004046A16907F074FB054605B113E0E069BD
:1030E0000078E52802D0E069007820B9781C07460E
:1030F000B04201D107E000270121204600F0B7F8D7
:103100000546002DE4D000BF042D00D10725284638
:10311000BDE8F0812DE9F04704468946204608F0D5
:103120008DF810B10120BDE8F08749462046FFF731
:103130006BFD0646A663A289002104F13C0007F05E
:1031400036FB04F13C080127002500E03D4460897E
:10315000A84207D9721960783B46414600F07BFAD5
:103160000028F3D06089A84201D00120DBE70020CD
:10317000D9E72DE9F0470446D4F800A00021204605
:1031800000F081F9064616B13046BDE8F0874FF0F1
:10319000FF08C1464FF0FF30E06200BF5046A16912
:1031A00007F00EFB064606B15EE0E06905780DB952
:1031B000042659E0E069C07A00F03F07A771E52DC9
:1031C00004D007F0080038B10F2F05D04FF0FF08EA
:1031D0004FF0FF30E06240E00F2F22D12B20005D46
:1031E00000F0400098BB05F0400038B1E06990F86D
:1031F0000D9005F0BF05A8462069E06245450CD159
:10320000E069407B484508D1E169DAF81000FFF732
:1032100009FD10B1A8F1010000E0FF2000F0FF0857
:103220001BE0B8F1000F05D1E06907F07FFE4845CB
:1032300000D119E02B20005D00F0010040B90B2205
:1032400004F12001E06907F093FA08B90CE004E00A
:103250004FF0FF084FF0FF30E0620021204600F001
:1032600006F80646002E99D000BF30468DE72DE9BE
:10327000F041044688462668206900F12007A069CD
:1032800010B1B7F5001F02D30420BDE8F081B0896A
:10329000B7FBF0F100FB1170002847D1A069401C7A
:1032A000A061606938B93089B0EB571F3ED8002063
:1032B000A0610420E9E7B089B7FBF0F07189491EED
:1032C000084098BB2046616901F01AFC0546012DB3
:1032D00001D80220D9E7681C08B90120D5E7306A77
:1032E000A8421DD8B8F1000F03D10020A06104202E
:1032F000CBE720466169FFF7E1FC05460DB90720E1
:10330000C3E7012D01D10220BFE7681C08B90120E5
:10331000BBE729463046FFF7FDFE08B10120B4E7C0
:10332000656129463046FFF76FFCA0612761B089CF
:10333000B7FBF0F100FB117106F13C000844E061BD
:103340000020A2E72DE9FE4F044626682B20005DF1
:1033500000F0A00010B10620BDE8FE8F4FF000097C
:1033600001E009F10109306930F819000028F8D1AD
:103370000C2204F12001684607F00CFA9DF80B00BE
:1033800000F0010028B340212B2001554FF0010827
:103390000EE04346694604F12000326901F04AFB21
:1033A0002046FFF7E6FE054605B104E008F10108F6
:1033B000B8F1640FEDD300BFB8F1640F01D107205D
:1033C000CAE7042D01D02846C6E79DF80B102B2034
:1033D00001559DF80B0000F0020030B109F10C001E
:1033E0000D21B0FBF1F0401C00E0012007463946FA
:1033F0002046FFF75FFE05464DBB781E070026D02E
:103400002069A0EB4711204600F03DF80546F5B9CC
:1034100004F1200007F08AFD824600BF3046A16912
:1034200007F0CEF9054605B110E0FAB2E16953465E
:10343000306907F02FFC0120F07000212046FFF7D3
:1034400016FF054615B9781E0700E7D100BFC5B9BC
:103450003046A16907F0B4F9054695B9202200214C
:10346000E06907F0A4F90B2204F12001E06907F0FC
:1034700091F92B20005D00F01800E169087301202C
:10348000F070284668E72DE9F04104460E462568AD
:10349000B6F5001F02D206F01F0010B10220BDE8F1
:1034A000F0812661A7681FB92878032800DB2F6BFD
:1034B00047B92889B0EB561F01D80220EFE7286BE7
:1034C000A0611DE06889A98900FB01F811E0394677
:1034D000204601F015FB0746781C08B90120DEE7FD
:1034E000022F02D3286AB84201D80220D7E7A6EB00
:1034F00008064645EBD239462846FFF785FBA06112
:103500006761A06908B90220C9E7A889B6FBF0F095
:10351000A1690844A061A889B6FBF0F100FB116124
:1035200005F13C000844E0610020B8E770B50446AE
:10353000012614B1012C17D106E0FFF7A4FA08B94F
:10354000002600E0012611E0FEF796FB4FF4FA7525
:1035500000BF681E80B20500FBD1FEF7CBFB012047
:1035600000F069F8064601E0012600BF00BF3046C2
:1035700070BD000010B50346042013B1012B2CD1FF
:1035800016E089B101290CD0022902D003290CD1FF
:1035900003E04FF40074148007E04FF4805414608B
:1035A00003E0104C146000E000BF00BF002016E0F4
:1035B000012904D0022906D003290BD107E04FF4DA
:1035C0002064146006E04FF48054148002E001246B
:1035D000146000BF00BF002001E0042000BF00BF56
:1035E00010BD000050D6DC012DE9F04105460E4625
:1035F00014461F464FF0040815B1012D14D106E002
:1036000031462046FDF7C6FE4FF000080FE004F5F6
:10361000C0644FF6FF7000EA073221033046FEF720
:1036200063F94FF0000802E04FF0040800BF00BF4C
:103630004046BDE8F0810146012011B1012906D1C3
:1036400002E020F0010004E020F0010001E0012090
:1036500000BF00BF70472DE9F04707468846144673
:103660001D464FF0040915B90420BDE8F08717B1D5
:10367000012F18D106E041462046FDF7C5FE4FF068
:10368000000913E004F5C06426033046FEF78EFA05
:103690004FF6FF7000EA053231464046FEF754F916
:1036A0004FF0000902E04FF0040900BF00BF484698
:1036B000DBE770B504460D460026207800F00100D7
:1036C00068B92068B5EB500F09D82946204600F0AC
:1036D0001FF8206820F00100401C2060261D3046A5
:1036E00070BD000010B50146002009B9064809E088
:1036F0000A1D0B6802EB5300031D044CA34200D3C8
:10370000002000BF10BD0000E8500020E85001205C
:1037100030B501F0030212B121F00301091D0A1DA9
:103720000368B2EB530F01D1026851080268B1EB94
:10373000520F0ED0031D5A18146824F001041460AF
:103740000468C1EB5404241F156864F35F05156019
:1037500000BF026861F35F02026030BD38B5054604
:10376000284600F05DFE04463CB96946284607F04D
:10377000ACFF04460CB900202860204638BD2DE976
:10378000F84F04460E466946204607F09EFF8246E3
:10379000BAF1000F01D194F811A0BAF1000F02D0D4
:1037A0005046BDE8F88FE068B04204D2207C00F0BB
:1037B000020000B9E668D4F814904FF00008C4F88D
:1037C0001480002E72D0009840890099898900FBEE
:1037D00001F7B9F1000F11D0701EB0FBF7F1A9F19C
:1037E0000100B0FBF7F0814208D3A9F10100791E76
:1037F000884360616069361AA56912E0A5687DB9E1
:1038000000212046FFF75AFA0546012D02D1022079
:103810006074C6E7681C10B901206074C1E7A56038
:10382000A561002D42D024E0F61B60693844606138
:10383000207C00F0020040B100BF29462046FFF77F
:103840003DFA054635B9002615E02946204601F027
:1038500057F90546681C10B901206074A1E7012DD5
:1038600003D90098006AA84202D80220607498E741
:10387000A561BE42D8D800BF60693044606100983D
:103880008089B6FBF0F100FB116078B12946009801
:10389000FFF7BAF98046B8F1000F02D10220607438
:1038A0007FE700988089B6FBF0F08044E1686069AA
:1038B000884205D96069E060207C40F040002074B7
:1038C000606900998989B0FBF1F201FB120020B315
:1038D000E069404521D0207C00F0800078B1E269A9
:1038E00000994878012304F12801FFF7B4FE10B1D4
:1038F0000120607455E7207C00F07F00207400995F
:1039000048780123424604F12801FFF76DFE10B10B
:103910000120607445E7C4F81C80504641E7000070
:103920002DE9FF4F95B017460120149040021390E7
:1039300015A801F07FF902900298002803DA0B2005
:1039400019B0BDE8F08FFA49029851F8200028B16B
:103950000021F74A029852F8200001700298C0B284
:103960001190002010901198FFF7E0FD0190019850
:1039700000F0010008B10320E2E7019800F0040024
:1039800008B10A20DCE70CAA03211198FFF7F2FD29
:1039900050B90C9840B10C98B0F5004F04D80C9871
:1039A000401E0C99084008B101200C900FAA02217A
:1039B0001198FFF7DFFD08B10120C1E7BDF83C0019
:1039C000B0F5805F0BDCBDF83C00B0F5007F06DB96
:1039D000BDF83C00401EBDF83C10084008B1012075
:1039E000AEE71FB1BDF83C00874205D3B7F1807F39
:1039F00002D8781E384008B11320A1E7BDF83C007A
:103A0000B7FBF0F7189CBDF83C102298B0FBF1F022
:103A10000D90BDF83C100D9848430E900CB10D98D8
:103A200008B911208CE700BF07AA01211198FFF700
:103A3000A1FD08B1012083E7169800F0080008B145
:103A4000002000E03F2083460798584501D20E2011
:103A500076E70798A0EB0B0007900798802801D223
:103A60000E206DE700BF00BF802F01D9132067E74C
:103A7000169800F0020050B1169800F007000228D6
:103A800003D0169800F0010008B9032607E0169845
:103A900000F0010008B9132052E7022600BF00BF62
:103AA00000BF3D46032E2FD1A5B907984FEA5049D4
:103AB00000200390012503E00398401C03906D0053
:103AC0009C49039831F8100020B1039831F8100098
:103AD0004845F1D90798B0FBF5F8082000EB8800BD
:103AE000BDF83C100844401EB0FBF1F005902020CA
:103AF0000690002004904FF6F570804502D98E485C
:103B000080453BD90E201BE7A5B907984FEA10392D
:103B100000200390012503E00398401C03906D00F2
:103B20008649039831F8100020B1039831F810004D
:103B30004845F1D90798B0FBF5F840F6F570804597
:103B400003D9042000EB480906E0012608EB4800F1
:103B5000401C032101EB5009BDF83C004844401EC5
:103B6000BDF83C10B0FBF1F0059001200690BDF8C7
:103B70003C004FF48041B1FBF0F0049006985844AB
:103B800009900999059801440498084408900C99F3
:103B900008980844401E491E20EA01010898A1EB3C
:103BA0000009032E06D10698484406900998484417
:103BB000099002E0059848440590089800EB05102C
:103BC000A0EB0B000799884201D90E20B8E6DDE989
:103BD0000601091A0598091A0498081AB0FBF5F8A5
:103BE000032E0AD14FF6F570804506D81FB9680834
:103BF000070000D031E00E20A2E6022E24D14FF6BD
:103C0000F570804514D92FB94020B0EB450F01D392
:103C10006F0022E0169800F0020008B103261CE0B5
:103C200027B968000746802800D816E00E2087E6EE
:103C300040F6F570804507D827B968000746802808
:103C400000D80AE00E207BE6012E05D140F6F57083
:103C5000804501D90E2073E600E022E700BFBDF8E1
:103C60003C200021204606F0A2FD0B2234A1204674
:103C700006F090FDBDF83C1004F10B0007F0FEF8D3
:103C80006573069881B204F10E0007F0F7F8012081
:103C90002074032E01D1002001E04FF40070014692
:103CA00004F1110007F0EAF80798B0F5803F06D25A
:103CB000079881B204F1130007F0E0F804E004F182
:103CC0002000079907F0CEF8F82060753F2104F135
:103CD000180007F0D3F8FF2104F11A0007F0CEF81E
:103CE000594604F11C0007F0BDF8032E36D11749E0
:103CF00004F1430007F0B6F804F12400059907F039
:103D0000B1F8022104F12C0007F0ACF8012104F114
:103D1000300007F0B3F8062104F1320007F0AEF8E6
:103D2000802084F84000292084F8420013220FE00C
:103D30002C010020F8FE0000F5FFFF0FEAFE000056
:103D4000EBFE904D53444F53352E30000000BD4CD8
:103D50009CA104F1470006F01DFD16E09E4904F108
:103D6000270007F07FF8059881B204F1160007F0EC
:103D700085F8802084F82400292084F82600132266
:103D800096A104F12B0006F005FD4AF6552104F535
:103D9000FF7007F073F801235A4621461198FFF788
:103DA0005AFC08B10120CBE5032E34D101230BF1DD
:103DB000060221461198FFF74EFCBDF83C20002179
:103DC000204606F0F4FC8A49204607F04BF8894962
:103DD00004F5F27007F046F8A8F1010104F5F4705B
:103DE00007F040F8022104F5F67007F03BF84AF6B8
:103DF000552104F5FF7007F041F801230BF107028C
:103E000021461198FFF727FC01230BF101022146FF
:103E10001198FFF720FC002120460E9A06F0C7FCFF
:103E200009980B900020039042E0032E0FD16FF011
:103E30000701204607F016F8311F201D07F012F881
:103E40006FF0704104F1080007F00CF809E0012E52
:103E500001D1694801E06FF007000146204607F0F4
:103E600001F805980A9000BF0D990A98884201D977
:103E70000D9800E00A9881464B4621460B9A11980E
:103E8000FFF7E9FB08B101205AE5BDF83C2000210D
:103E9000204606F08CFC0B9848440B900A98A0EB47
:103EA00009000A900A980028DED10398401C03906C
:103EB00003980028B9D0032E01D1284600E00498C9
:103EC0000A9000BF0D990A98884201D90D9800E028
:103ED0000A9881464B4621460B9A1198FFF7BBFB87
:103EE00008B101202CE50B9848440B900A98A0EBF0
:103EF00009000A900A980028E4D100BF032E02D1DD
:103F00000C2012900CE00798B0F5803F02D30620F9
:103F1000129005E0022E01D1042000E00120129051
:103F200000BF169800F00800F0BBBDF83C2000214F
:103F3000204606F03CFC4AF6552104F5FF7006F0D9
:103F40009DFF04F5DF7A00208AF8000001208AF83E
:103F500001008AF8020000208AF8030012988AF80B
:103F600004000798584443F6C161B0FBF1F9FE2004
:103F70008AF80500C02000EA990040F03F008AF866
:103F800006008AF8079059460AF1080006F06AFF11
:103F90000AF10C00079906F065FF01230022214673
:103FA0001198FFF758FB00E002E008B10120C7E4D8
:103FB000002211461198FFF7DDFA08B10120BFE495
:103FC0000020BDE44E4F204E414D4520202020468C
:103FD00041543332202020000000BD4C4E4F204E73
:103FE000414D452020202046415420202020200003
:103FF0005252614172724161F8FFFF00F7B582B021
:1040000016460398019001A800F014FE0546002D05
:1040100002DA0B2005B0F0BD0C4850F825400CB179
:1040200000202070029810B1002002990870074902
:10403000029841F825000EB90020EBE7002202A902
:1040400003A800F0CBFA07463846E3E72C0100202E
:104050002DE9F74FADF50E7D0446164624B909202B
:104060000DF5117DBDE8F08F06F03F06324681A9BF
:104070008FA800F0B3FA0546002D7DD1819882907B
:104080008199C1F810D082A88F9900F057FC05469D
:104090002DB99DF8330200F0800000B1062506F02E
:1040A0001C0000284DD045B1042D03D182A8FFF794
:1040B00049F9054646F008060AE09DF80E0200F0B0
:1040C000110008B1072503E006F0040000B108253F
:1040D000002D47D106F00800002843D08999819827
:1040E00001F0A4F98146899901F10E00574906F0C3
:1040F000B9FE20208999C87200228999819806F01A
:104100009FFE899901F11C00002106F0ABFE012001
:104110008199C870B9F1000F24D08198806B80908C
:104120000022494682A806F03EFE0546D5B9809990
:10413000819806F045FB0546A9F101008199486187
:1041400010E07DB99DF80E0200F0100008B10425C2
:1041500008E006F0020028B19DF80E0200F0010010
:1041600000B107255DB906F0080008B146F0400629
:104170008198806B206200E051E089986062002D98
:104180005ED18999819801F051F9A060899901F176
:104190001C0001F05EF9E060819820608198C08881
:1041A000A080267400206074E06160614FF480524A
:1041B000002104F1280006F0FAFA06F0200070B39E
:1041C000E06860B3E068606181984089819989897D
:1041D00000FB01FAA768D4F80C800CE039462046B1
:1041E00000F08EFC0746012F00D80225781C00B98C
:1041F0000125A8EB0A080DB9D045EFD8A76175B91C
:1042000081988089B8FBF0F100FB118038B1394604
:104210008198FEF7F9FC5FEA000B01D102250FE05F
:1042200081988089B8FBF0F05844E061E269819997
:104230004878012304F12801FFF7D6F900B10125E0
:104240000DB10020206028460AE700000000BD4CA8
:104250002DE9FF4F85B0044615469A46DDF818B0A3
:104260000020CAF8000003A9204607F02EFA0490A7
:10427000049810B9607C049018B1049809B0BDE8A6
:10428000F08F207C00F0010008B90720F6E7616993
:10429000E068401A01900198854200D9019DB9E07B
:1042A000606903998989B0FBF1F201FB12000028D3
:1042B00076D1606903998989B0FBF1F00399498946
:1042C000491E00EA0109B9F1000F17D1606910B960
:1042D000A068029004E02046A16900F011FC029061
:1042E0000298022802D202206074C7E70298401C9C
:1042F00010B901206074C1E70298A061A169039818
:10430000FEF782FC064616B902206074B6E74E44FA
:1043100003988089B5FBF0F8B8F1000F2DD009EBB8
:10432000080003994989884203D903984089A0EB82
:10433000090803994878434632465946FFF754F92D
:1043400010B10120607499E7207C00F0800078B102
:10435000E069801B40450BD2E169891B039B9B8967
:1043600001FB03B003998A8904F1280106F012FACF
:104370000398808900FB08F742E0E069B04220D052
:10438000207C00F0800080B1E26903994878012325
:1043900004F12801FFF75FF918B1012060746DE79F
:1043A00010E0207C00F07F002074039948780123FE
:1043B000324604F12801FFF717F910B101206074AB
:1043C0005CE7E661606903998989B0FBF1F201FB62
:1043D0001200039989890F1AAF4200D92F466069EC
:1043E00003998989B0FBF1F201FB120104F1280065
:1043F00008443A4601460090584606F0CBF900BF03
:10440000ED1BDAF800003844CAF80000BB446069CC
:1044100038446061002D7FF443AF00202EE7000098
:10442000F8B504466946204607F04FF90646002EC7
:1044300042D1207C00F0400000283DD0207C00F0DC
:10444000800070B1E26900994878012304F12801E5
:10445000FFF701F908B10120F8BD207C00F07F00D2
:104460002074164F216A009806F0AAF906461EBB72
:10447000656AE87A40F02000E8722946A268206860
:1044800006F0DEFC05F11C00E16806F0EBFC3946A5
:1044900005F1160006F0E6FC002105F1120006F019
:1044A000EDFC01200099C870009806F07FFE0646DA
:1044B000207C00F0BF0020743046CDE70000BD4CEA
:1044C00010B502460020084B802A01DA104609E0A8
:1044D00040F2B514A14205D1FF2A03DCA2F1800409
:1044E00033F8140010BD000006FF000010B50246AE
:1044F00000200D4B802A01D290B213E0B2F5803F2C
:1045000010D240F2B514A1420CD1002001E0441CAD
:10451000A0B2802803DA33F810409442F7D100F1BA
:104520008004E0B210BD000006FF000070B5B0F5D9
:10453000803F4DD281B2B1F5805F01DA254E00E0B7
:10454000254E324600BF32F8023B0BB1994200DAE9
:104550003CE032F8024B2512E4B21E198E4230DDE7
:10456000092D2CD2DFE805F005090F13171B1F23B7
:104570002700CE1A32F8161021E0CE1A06F00106F6
:104580008E1BB1B21BE0A1F11006B1B217E0A1F190
:104590002006B1B213E0A1F13006B1B20FE0A1F1F3
:1045A0001A06B1B20BE001F10806B1B207E0A1F1C1
:1045B0005006B1B203E0A1F5E356B1B200BF00BFAF
:1045C00004E0002DBFD102EB4402BCE700BF084667
:1045D00070BD000006000100F80101002DE9F74F51
:1045E0008AB000210B9801600A9800F023FB089024
:1045F0000898002803DA0B200DB0BDE8F08FCA49F7
:10460000089851F820400CB90C20F5E70B9804608D
:104610000C9800F0FE000C90207878B16078FFF7DD
:104620000AF8814609F0010040B90C9820B109F060
:10463000040008B10A20DFE70020DDE70020207039
:10464000089860706078FEF771FF814609F00100FC
:1046500008B10320D0E70C9820B109F0040008B19C
:104660000A20C9E7607804F10C020221FEF782FFFC
:1046700008B10120C0E7A089B0F5805F07DCA08900
:10468000B0F5007F03DBA089411E084008B101207E
:10469000B2E7002739462046FEF76EFA0546022D9E
:1046A00001D02EDA2DE0002614E04FF4DF7000EB8D
:1046B000061104F13C00084409900998007920B1E2
:1046C0000998083000F0C5FE00E0002002A941F87A
:1046D0002600761C042EE8D3002606B1761E00BF05
:1046E00002A850F8267027B139462046FEF744FA52
:1046F00000E003200546022D03DB701C064604285B
:10470000EED3042D01D1012076E7022D01DB0D202F
:1047100072E704F1470000F0A8FEA189884201D0A9
:104720000D2069E704F1520000F09FFE8046B8F1C9
:10473000000F04D104F1600000F08BFE8046C4F845
:1047400024804C20005DA070A078012804D0A078BF
:10475000022801D00D204FE7A07808FB00F849207F
:10476000005D6081608918B16089411E084008B110
:104770000D2041E704F14D0000F077FE2081A08973
:10478000C11700EBD1614911228992FBF1F301FBC2
:10479000132109B10D202FE704F14F0000F065FE51
:1047A0008346BBF1000F04D104F15C0000F051FE20
:1047B000834604F14A0000F058FE0190019808B9C0
:1047C0000D2019E7A089C11700EBD1614911228999
:1047D00092FBF1F2019941441144079107998B45ED
:1047E00001D20D2008E70798ABEB00006189B0FB10
:1047F000F1FABAF1000F01D10D20FDE600254B487A
:10480000824500D803254FF6F570824500D8022571
:1048100040F6F570824500D801250DB90D20EBE674
:104820000AF102002062A76201983844E06207980A
:1048300038446063032D13D104F1660000F015FEC7
:1048400008B10D20D8E6208908B10D20D4E604F186
:10485000680000F0FEFD2063206A8000069015E0ED
:10486000208908B90D20C7E6E06A40442063022D84
:1048700002D1206A400008E094F8200000F0010016
:10488000216A01EB410100EB51000690A089401E16
:1048900006990844A189B0FBF1F0616A884201D908
:1048A0000D20A9E64FF0FF30A061606180202071EB
:1048B000032D2CD104F16C0000F0D7FD012826D186
:1048C000791C204605F07CFF08BB0020207104F213
:1048D0003A2000F0CAFD4AF65521884217D104F16A
:1048E0003C0000F0B6FD1249884210D104F5087072
:1048F00000F0AFFD0F49884209D104F5097000F0BE
:10490000A8FDA06104F50A7000F0A3FD60612570A8
:1049100009480088401C80B207490880E0800020D8
:10492000E06100BF68E600002C010020F5FFFF0FEA
:104930005252614172724161340100202DE9F3410C
:1049400004462768019800782F2806D0019800783F
:104950005C2802D0F869A0600DE002E00198401CDC
:104960000190019800782F28F8D0019800785C28F1
:10497000F4D00020A06001980078202808D280217F
:104980002B20015500212046FEF77DFD05463CE029
:1049900000BF01A92046FEF721FA054605B133E024
:1049A0002046FEF7E6FB05462B20065D95B1042D5B
:1049B0000FD106F0200040B106F0040000B9E8E78E
:1049C00080212B200155002503E006F0040000B9EA
:1049D000052519E006F0040000B115E0A07900F00B
:1049E000100008B905250FE0B9892069B0FBF1F284
:1049F00001FB120107F13C0001EB0008414638467B
:104A000000F014FDA060C4E700BF2846BDE8FC81AB
:104A100070B504460D46E1B20548FDF7C9FB00BF7D
:104A20000348FDF7B9FB0028FAD1204670BD00000D
:104A3000000002402DE9FF4F83B0804691461E469C
:104A40000B224046049905F0A5FE052E18D93746DD
:104A500011E039F802BB00250BE0584667F35F0010
:104A600007464FEA6B0B07F4803008B123484740F4
:104A70006D1C102DF1D3B9F800000028E9D13E4695
:104A8000072500BF06F00F0000F1300ABAF1390F18
:104A900003DD0AF1070000F0FF0A28466D1E01A998
:104AA00001F800A03609002EECD17E2048550024E4
:104AB0000AE018F80400FEF7F1FA20B1681EA042DF
:104AC00000D107E0641C641CAC4203D218F8040057
:104AD0002028EED100BF00BF082D04D228466D1C4F
:104AE00001A9085C00E020202146641C08F80100B0
:104AF000082CF1D307B0BDE8F08F000021100100B1
:104B00002DE9F05F81460D46D9F80040022D02D311
:104B1000206AA84202D84FF0010887E04FF0FF3822
:104B20002078012804D002283AD003287AD156E010
:104B30002E4606EB5606A089B6FBF0F0E16A00EBC4
:104B4000010A5146204605F03BFE00B16DE03046BB
:104B5000761CA189B0FBF1F201FB120104F13C00CB
:104B6000475CA089B6FBF0F0E16A00EB010A514610
:104B7000204605F025FE00B157E0A089B6FBF0F114
:104B800000FB116104F13C00405C47EA002705F09E
:104B9000010008B1380901E0C7F30B00804644E08A
:104BA000B4F80CA00AEBDA704010B5FBF0F0E16A43
:104BB00000EB010B5946204605F002FE00B134E03F
:104BC0006800A189B0FBF1F201FB120104F13C0085
:104BD00001EB000A504600F048FC804625E0B4F89E
:104BE0000CA04FEAEA700AEB90708010B5FBF0F071
:104BF000E16A00EB010B5946204605F0E1FD00B1EA
:104C000013E0A800A189B0FBF1F201FB120104F14D
:104C10003C0001EB000A504600F01BFC20F07048FD
:104C200003E0FFE74FF0010800BF00BF4046BDE8CA
:104C3000F09F000030B502464FF0FF30156805B315
:104C4000116800E0491C0D78202D02D30D783A2D13
:104C5000F8D10D783A2D12D1146814F8013B302B9D
:104C60000FD3392B0DD88C420BD1A3F130052B4635
:104C7000022D06D218464D1C2946156001E0014D53
:104C8000287830BD360100200146302905DB39295E
:104C900003DCA1F13000C0B27047612902DBA1F151
:104CA0002000C1B2A1F14100062810D2DFE800F0D7
:104CB000030507090B0D0A20EEE70B20ECE70C209B
:104CC000EAE70D20E8E70E20E6E70F20E4E7002002
:104CD000E2E770B504460D46E06B296830F8211014
:104CE0002182E06B296800EB810041886182B4F980
:104CF0001410B4F9100081420DD1B4F91610B4F9B2
:104D00001200814207D12879012804D104F10C0056
:104D100000F098F903E004F10C0000F08DFA218A0C
:104D2000A182618AE18270BD2DE9F05F0446656968
:104D300003E0284603F0BAFC0546284603F096FC3B
:104D400008B1002DF5D10DB9BDE8F09F284603F05C
:104D500087FC00B9F8E7207F00F0010030BB218A12
:104D6000A089084401B22182618AE089084401B225
:104D70006182B4F91000002802DDB4F9100002E0ED
:104D8000B4F9100040420A280BDAB4F912000028E6
:104D900002DDB4F9120002E0B4F9120040420A2820
:104DA00004DB207F20F00100401C2077207F00F0F2
:104DB0000100002844D0A08910B9E08900283FD024
:104DC000284603F0C7FC0646284603F0CFFC0746FA
:104DD00003F000FF8046B5F91090B5F912A0E08904
:104DE000384402B2A089304401B2284603F065FD80
:104DF000B5F91000484503D1B5F91200504515D05A
:104E0000207F00F0010058B10E48AB690C21026808
:104E10002846984794F82800C0F3400000B193E773
:104E2000207F20F00200801C207708E003F0D2FEF3
:104E30008346ABEB080188B204F054F800BF00BF12
:104E400000BF81E7080000202DE9F0410446207FE3
:104E5000C0F3400008B9BDE8F081A56903E0284629
:104E600003F024FC0546284603F000FC08B1002DA1
:104E7000F5D105B9EFE7284603F0FEFB50B9207FD6
:104E800020F0020121772C48AB690D2102682846E9
:104E90009847E0E7B4F90C0000EB800000016421C2
:104EA00090FBF1F001B2A181B4F90E0000EB80009B
:104EB0000001642190FBF1F001B2E181A08908B901
:104EC000E08968B3284603F045FCA189084406B28E
:104ED000284603F04BFC0146E089084407B23A46F5
:104EE0003146284603F0E9FC284603F033FCB04283
:104EF00001D1A08998B9284603F038FCB84201D105
:104F0000E08960B9207F20F0020121770021A18192
:104F1000E1810948AB690D2102682846984709E0FC
:104F2000207F20F0020121770348AB690D21026840
:104F30002846984700BF8EE70800002070B5044659
:104F40000D46E06B00B970BD2879012805D1207CA1
:104F500018B904F075FBE06240E0287901281CD103
:104F6000207C012819D128680A2837D194F8340008
:104F700000F0010090BBE06A04F054FBB0F5C87F7C
:104F80002CD90E21E06B02F09AF894F8340020F04E
:104F90000100401C84F8340020E02879F0B9207C1E
:104FA00001281BD1606928602868092803D1E06BBB
:104FB00001F0F2FF0AE028680B2803D1E06B02F051
:104FC00024F803E02968E06B02F079F80021E1623F
:104FD00094F8340020F0010184F834102979217408
:104FE0002968616100BFAEE770B504460D46E06B0D
:104FF00090B1B4F91400B5F90010884205D1B4F9A4
:105000001600B5F90210884206D0B5F90220B5F9AC
:105010000010E06B03F051FC2988218269886182CD
:10502000207B012804D104F10C0000F00BF803E010
:1050300004F10C0000F000F9218AA182618AE1826A
:1050400070BD00002DE9F04104466569207FC0F382
:10505000800008B1BDE8F081606988B902F0D0FF36
:1050600006463146204600F08FF9054615BB03F091
:1050700079FF06463146204600F086F9054619E0DC
:10508000207FC0F34000A8B91021606903F0D9FB6C
:1050900080B902F0B5FF06463146204600F074F9AB
:1050A00005463DB903F05EFF06463146204600F056
:1050B0006BF905466069A84252D0A1882181E18838
:1050C0006181606958B160695A4983690A68082139
:1050D000984794F82800C0F3400000B1BAE7002DCB
:1050E0003ED004F0ADFA206294F8280020F00100D0
:1050F00084F82800207F20F001012177207F20F014
:10510000020121770021218261822E46002709E0D9
:1051100096F83000C0F3401000B13746304603F037
:10512000C5FA0646002EF3D16FB1384603F0BEFA39
:1051300080463A4608F10401084602F067FF384607
:1051400003F020FB00BF3B48AB69062102682846FC
:10515000984794F82800C0F3400000B17AE700BFF8
:1051600065616169A161A1882089081A01B2A181E4
:10517000E1886089081A01B2E1816069002856D08F
:1051800060692C4983690A680721984794F82800C8
:10519000C0F3400000B15DE72046FFF7C5FD94F87D
:1051A0002800C0F3400000B154E7207FC0F3400066
:1051B00000BB94F8280000F00100D8B9206A04F080
:1051C00031FAB0F5C87F15D91A48AB690A210268CF
:1051D0002846984794F82800C0F3400000B139E70A
:1051E00094F8280020F00100401C84F8280004F006
:1051F00027FA6062207FC0F34000C0B994F828000D
:1052000000F0010098B1606A04F00CFA64280ED92D
:105210000848AB690B2102682846984794F8280093
:10522000C0F3400000B115E704F00AFA606200BF65
:1052300010E700000800002010B50446207FC0F3EE
:10524000800048B100216161A1610020206260629C
:10525000207F20F004012177606980B160691149E5
:1052600083690A680921984794F82800C0F3400030
:1052700000B110BD00216161002020626062A06960
:1052800068B194F82800C0F3400040B92046FFF709
:10529000DBFD94F82800C0F3400000B1E9E700BF4F
:1052A000E7E700000800002090F83410C1F3400147
:1052B000F1B10022026242622821095C21F0010260
:1052C00028210A54095C21F0020228210A5490F88E
:1052D000341021F0010280F834200022C2620263FF
:1052E0008283C28390F8341021F0020280F83420C7
:1052F00070470000FEB50646002002F021F9044682
:1053000039E0204804602046FFF7CEFF94F83400CF
:10531000C0F3800058BB00BF6946204602F01EF96A
:1053200005469DF804002073207B012802D104F07B
:1053300087F9A0632078012804D169462046FFF749
:1053400053FE0EE02078022804D169462046FFF77C
:10535000F5FD06E02078032803D169462046FFF7D3
:10536000B8FC2046FFF7A0FF002DD5D100BF204696
:1053700002F0E6F80446002CC3D100200149086081
:10538000FEBD0000080000202DE9F04107460C4654
:105390000025391D04F1100000F0E5F800282BD09D
:1053A000201D02F051FE80460BE041463846FFF7D3
:1053B000EBFF054605B107E04146201D02F049FE1E
:1053C0008046B8F1000FF0D100BFA5B9204603F028
:1053D00035F980B1264608E0304603F061F900B1A6
:1053E00005E0304603F062F90646002EF4D100BF16
:1053F00006B9254600BF00BF2846BDE8F081000081
:1054000002460020002107E006A35B5C934201D125
:10541000012005E04B1CD9B202A35B5C002BF3D149
:1054200000BF7047202C2E3B3A2D5F0070B505461B
:105430000C4604F11A0000F018F8064628780328F4
:1054400005D104F1140000F010F846EA0046304699
:1054500070BD0146C8788A7842EA00204A7842EA5C
:1054600000200A7842EA00207047014648780A780E
:1054700042EA002070470A6802604A68426070474A
:105480000A6802604A68426070470146C8884A88D4
:10549000801A401C00B270470146C8884A88801AAA
:1054A000401C00B2704710B50146B1F90420B1F9B3
:1054B0000030D21A521CB1F90630B1F902401B1B60
:1054C0005B1C02FB03F010BD014688880A88801A25
:1054D000401C00B27047014688880A88801A401C28
:1054E00000B27047014688880A88801A401C00B2C2
:1054F000704710B502460020B2F90030B1F9004003
:10550000A34212DBB2F90230B1F90240A3420CDB34
:10551000B2F90430B1F90440A34206DCB2F9063016
:10552000B1F90640A34200DC012010BD0246B2F9E9
:105530000000B1F90430984213DCB2F90400B1F96B
:10554000003098420DDBB2F90200B1F90630984202
:1055500007DCB2F90600B1F90230984201DB012004
:1055600070470020FCE710B502460020B1F900307A
:10557000B2F90040A34212DBB1F90030B2F90440A5
:10558000A3420CDCB1F90230B2F90240A34206DBBF
:10559000B1F90230B2F90640A34200DC012010BD8F
:1055A00010B5B1F90030B2F90040A34202DAB1F906
:1055B000003001E0B2F900300380B1F90230B2F9F5
:1055C0000240A34202DAB1F9023001E0B2F902303E
:1055D0004380B1F90430B2F90440A34202DDB1F9CD
:1055E000043001E0B2F904308380B1F90630B2F939
:1055F0000640A34202DDB1F9063001E0B2F90630FF
:10560000C38010BD10B5029C018042808380C4809D
:1056100010BD30B50346B1F90040B2F90050AC42BC
:1056200002DDB1F9004001E0B2F900401C80B1F99F
:105630000240B2F90250AC4202DDB1F9024001E091
:10564000B2F902405C80B1F90440B2F90450AC42B6
:1056500002DAB1F9044001E0B2F904409C80B1F9EA
:105660000640B2F90650AC4202DAB1F9064001E058
:10567000B2F90640DC800120B3F90040B3F90450D0
:10568000AC4205DCB3F90240B3F90650AC4200DD90
:10569000002030BD2DE9F04107460E463146384620
:1056A00002F072FE8046404602F0D6FD31480068A6
:1056B00020B9404603F00AF82E4908602E480068D9
:1056C00020B9404602F0C9FF2B4908600C21404632
:1056D00002F050FE0446204602F0BEFD002060802D
:1056E0006420A080002020802448A06024494046F7
:1056F00003F03AF92349404603F0D0F80EBB0021ED
:10570000404603F0C2F82122C821404603F02EF99A
:10571000B4F90010404600F0FEF803F07DFF0546A6
:1057200055B100214046EA6B00F0DBF8012140460C
:105730002A6C00F0D6F803E01349404603F04CF918
:1057400014E0304602F09EFF054668886080A88815
:10575000A08028882080A868A060404603F087F8D1
:10576000B4F90010404600F0D6F800BF4046BDE84E
:10577000F0810000900000208C00002080040020B8
:10578000655900008D570000440400202DE9FC47B6
:1057900007468A461646022E07D1324651463846FB
:1057A000454B1B689847BDE8FC87002E7DD13246EB
:1057B00051463846404B1B689847384602F062FF16
:1057C00004460121384600F079F8054668463969F3
:1057D00001607969416000BFBDF80010288B084462
:1057E00000B2ADF80000BDF80410288B081A00B212
:1057F000ADF80400BDF80210E88A084400B2ADF824
:105800000200BDF80610E88A081A00B2ADF80600DA
:1058100000BFBDF80400BDF80010401A401C00B2E3
:10582000804600BFBDF80600BDF80210401A401CBB
:1058300000B28146C8451ADBB4F90000B4F9021081
:10584000401A00FB08F0B4F90410B4F90220891AD8
:1058500090FBF1F000B2ADF80400BDF80000BDF817
:1058600004100844401E00B2ADF8040019E0B4F979
:105870000000B4F90210401A00FB09F0B4F904105A
:10588000B4F90220891A90FBF1F000B2ADF80200E1
:10589000BDF80600BDF80210401A401C00B2ADF879
:1058A00002002A465146684600E002E000F08CFB08
:1058B00000BF012077E700008C00002070B505468E
:1058C0000C46284602F0DEFE064614B1012C06D135
:1058D00003E0284602F0FEFE70BDB068FCE7002041
:1058E000FAE72DE9F04106460D461446304602F02F
:1058F000C9FE074615B1012D0AD104E02146304604
:1059000003F06AF804E0BC60304602F0A3FF00BF79
:1059100000BFBDE8F08170B506460D46304602F086
:10592000B1FE0446B4F90000A84200D170BDB4F93C
:105930000400A84202DAB4F9040000E028462080FE
:10594000B4F90000B4F90210884202DAB4F9020096
:1059500001E0B4F900002080304602F013FF00BFE0
:10596000E4E700002DE9F04104460D4616463246B4
:1059700029462046164B1B6898470746012F02D040
:105980003846BDE8F081042D0ED101212046FFF7F5
:1059900095FF8046B8F91200B4F93210884202DD52
:1059A000B8F81200608611E0052D0FD131460020B5
:1059B00005E051F8202002B903E0421CD0B20728CC
:1059C000F7DB00BF03A241F8202000BF3846D8E72C
:1059D000900000206C765F62617200000146B1F9B0
:1059E0000200B1F90020904201DC01207047002044
:1059F000FCE7028000234380C2F101031BB20B804D
:105A000070474288521C12B24280B1F90020002A2D
:105A100007DC0B8842885200521C1A4412B20A80DA
:105A20000CE00288521E12B2028042880388D21A09
:105A30005200521C0B881A4412B20A80704707B5F4
:105A400081B0BDF80800C00AC2F1FF014843BDF8AB
:105A50000410C90A01FB0200010ABDF8000061F34D
:105A6000CF200090BDF80800C0F34510C2F1FF013F
:105A70004843BDF80410C1F3451101FB0200010ABF
:105A8000BDF8000061F34A100090BDF8080000F076
:105A90001F00C2F1FF014843BDF8041001F01F01CF
:105AA00001FB0200010ABDF8000061F30400009050
:105AB000BDF80010084604B000BD07B581B0BDF8C0
:105AC0000800C00AC2F1FF014843BDF80410C90A2A
:105AD00001FB0200010ABDF8000061F3CF20009035
