:020000040000FA
:1000000010A501205D0100006101000063010000F6
:1000100065010000670100006901000000000000A8
:100020000000000000000000000000006B01000064
:100030006D010000000000006F010000911A000037
:1000400073010000750100007701000079010000D4
:100050007B0100007D0100007F01000081010000A4
:100060008301000085010000870100008901000074
:100070008B0100008D0100008F0100009101000044
:100080009301000095010000810800009901000023
:100090009B0100009D0100009F010000A1010000E4
:1000A000A3010000A5010000A7010000A9010000B4
:1000B000AB010000AD010000AF010000B101000084
:1000C000B3010000D1130000B7010000B901000026
:1000D000BB010000BD010000BF010000C101000024
:1000E000C3010000C5010000C701000000000000BE
:1000F000C9010000CB010000CD010000CF010000CC
:10010000D1010000D3010000D5010000D70100009B
:10011000D9010000DB010000DD010000DF0100006B
:10012000E1010000E3010000E5010000E70100003B
:10013000E9010000EB010000ED010000EF0100000B
:10014000F1010000F3010000DFF80CD000F096FA96
:1001500000480047E5F9000010A5012025480047A8
:10016000FEE7FEE7FEE7FEE7FEE7FEE7FEE7FEE767
:10017000FEE7FEE7FEE7FEE7FEE7FEE7FEE7FEE757
:10018000FEE7FEE7FEE7FEE7FEE7FEE7FEE7FEE747
:10019000FEE7FEE7FEE7FEE7FEE7FEE7FEE7FEE737
:1001A000FEE7FEE7FEE7FEE7FEE7FEE7FEE7FEE727
:1001B000FEE7FEE7FEE7FEE7FEE7FEE7FEE7FEE717
:1001C000FEE7FEE7FEE7FEE7FEE7FEE7FEE7FEE707
:1001D000FEE7FEE7FEE7FEE7FEE7FEE7FEE7FEE7F7
:1001E000FEE7FEE7FEE7FEE7FEE7FEE7FEE7FEE7E7
:1001F000FEE7FEE74901000040EA01039B0703D048
:1002000009E008C9121F08C0042AFAD203E011F855
:10021000013B00F8013B521EF9D27047D2B201E017
:1002200000F8012B491EFBD270470022F6E710B5FB
:1002300013460A4604461946FFF7F0FF204610BD54
:10024000421C10F8011B0029FBD1801A704710B521
:10025000002200E0521C835C8C5CA34201D1002B85
:10026000F8D1D8B2E1B2401A10BD034611F8012B03
:1002700000F8012B002AF9D11846704730B50B461B
:10028000014600202022012409E021FA02F59D42C6
:1002900005D303FA02F5491B04FA02F52844151E9A
:1002A000A2F10102F1DC30BD2DE9F05F054600202E
:1002B00092469B4688460646814640241BE02846D7
:1002C00041464746224600F0FAF953465A46C01ABC
:1002D000914110D311461846224600F0E1F92D1A3B
:1002E00067EB01084F4622460120002100F0D8F9B3
:1002F00017EB00094E41201EA4F10104DFDC484643
:1003000031462A464346BDE8F09F2DE9FE4F804620
:1003100081EA0300C00F0C46009021F0004123F059
:100320000045B8EB0200A94105D24046214690465F
:100330001C460B46024623F00040104347D0270DD1
:10034000C7F30A00C3F30A510290401A01904028F3
:100350006BDAC3F3130040F4801B0098924620B17F
:100360000023D2EB030A63EB0B0B01985946C0F153
:100370004002504600F094F906460D465046594654
:10038000019A00F0ACF910EB08006141002487EA03
:10039000115284EAE7731A4340D0009A62B3019A7B
:1003A000012A4FEA075215DC001B61EB02014FF0F6
:1003B000004202EA0752CDE90042001C41F58011DB
:1003C00032462B4600F0ACF903B0BDE8F08F404652
:1003D0002146F9E7001B61EB0201001C41F5801387
:1003E00000185B412018A2F5001747EB030140EA13
:1003F000D570B6196D4111E06D084FEA360645EA31
:10040000C0754FEA0752001B61EB0201001C41F569
:10041000801149084FEA30000019514132462B46FD
:1004200003B0BDE8F04F00F06CB900980122400025
:100430000023D0EB020263EBE073009821464FEA01
:10044000E074B8EB000061EB0401E9E783F00043DE
:100450005BE781F0004158E72DE9FE4F81EA030494
:1004600004F0004421F0004100944FF0000B23F011
:10047000004350EA01045ED052EA03045BD0C3F3A8
:100480000A54C1F30A552C44A4F2F3340194A0FB9E
:100490000254C1F3130141F48011C3F3130343F475
:1004A000801301FB024400FB034E840A970A44EACE
:1004B000815447EA8357A4FB076802958D0A05FB20
:1004C00007854FEA932C04FB0C542705029D4FEA45
:1004D000065847EA1637B5EB08056EEB070C870E92
:1004E000920E47EA811742EA8312A7FB0201B6EB9C
:1004F0000B0164EB00042B0D43EA0C335E1844EB54
:100500001C50DA465146E7FB0201C5F313044FEADB
:100510000B3343EA14534FEA0432019C43EA0603C7
:10052000A4F10C040294009CCDE900B400F0F8F8AA
:1005300003B0BDE8F08F00200146F9E72DE9F04D4A
:1005400081EA030404F0004B21F0004514464FF00B
:10055000000A23F0004150EA050220D054EA0102CB
:100560001DD0C5F30A570246C5F31303C1F31300A8
:10057000C1F30A5640F4801543F48013A7EB060834
:10058000101BD64608F2FD3873EB050002D308F1C4
:10059000010801E092185B41B8F1000F03DA002076
:1005A0000146BDE8F08D00204FF4801106468446D8
:1005B0000EE0171B73EB050705D3121B63EB050356
:1005C00006434CEA010C49084FEA300092185B419F
:1005D00050EA0107EDD152EA030012D082EA04008A
:1005E00083EA0501084305D0101BAB4106D2012266
:1005F000002306E000224FF0004302E06FF001020A
:1006000053101AEB06004CEB085110EB0A0041EBBB
:100610000B01BDE8F04D00F074B8C1F30A52C1F30C
:10062000130140F2FF3341F480119A4202DA0020B4
:100630000146704740F233439A42A2F2334202DC51
:10064000524200F03CB800F02BB8000030B5041E58
:1006500071F1000404DB4FF00044404264EB0101FF
:10066000141E73F1000405DB1C464FF00043524298
:1006700063EB0403994208BF904230BD064C074D1E
:1006800006E0E06840F0010394E807009847103462
:10069000AC42F6D3FFF75CFD70BD040090BD0400D2
:1006A000202A04DB203A00FA02F100207047914032
:1006B000C2F1200320FA03F3194390407047202A27
:1006C00004DB203A21FA02F00021704721FA02F3FC
:1006D000D040C2F120029140084319467047202AB9
:1006E00006DBCB17203A41FA02F043EAE07306E05A
:1006F00041FA02F3D040C2F120029140084319466A
:10070000704710B5141E73F1000408DA401C41F163
:10071000000192185B411A4301D120F0010010BD85
:100720002DE9F04D92469B4611B1B1FA81F202E0FB
:10073000B0FA80F220329046FFF7B2FF04460F462F
:1007400040EA0A0041EA0B0153465A46084313D0D7
:10075000114653EA010019D0C8F140025046FFF794
:10076000AEFF05460E46504659464246FFF798FFF3
:10077000084305D0012004E020463946BDE8F08D4D
:100780000020054346EAE0762C4337430A98630588
:10079000E40AA0EB08000022FD0A44EA47540A30AC
:1007A00002D500200146E9E7010510196941DDE99C
:1007B000084500196941BDE8F04DA2E770B58C18F5
:1007C00010F8015B15F0070301D110F8013B2A1165
:1007D00006D110F8012B03E010F8016B01F8016B52
:1007E0005B1EF9D12B0705D40023521E0DD401F84E
:1007F000013BFAE710F8013BCB1A921C03E013F817
:10080000015B01F8015B521EF9D5A142D8D300204B
:1008100070BD012202FA01F101627047D0F814C0E4
:10082000012303FA01F12CEA01034361836812F00A
:10083000100F07D00B43836012F0010F15D011E0A9
:10084000026107E08B43836012F0020F04D0C2689C
:100850000A43C26001627047C3688B43C36012F0F1
:10086000010F02D002690A43EAE702698A43E7E717
:100870004269012303FA01F111434161704700000D
:1008800010B502210348FFF7C4FF03490120486067
:1008900010BD000000300140EC030020026801237D
:1008A00003FA01F122EA0101016070472DE9F047E6
:1008B000DFF88C914FF0010C1F461546614E0CFA83
:1008C00001F4DDF82080A0EB09024FF08043484599
:1008D0007FD026DCA0F58830B0F1804043D0B0F561
:1008E000805F5AD0B0F5005F18BFBDE8F087986808
:1008F00040F00400986001230022022000F028FE4E
:100900005148012D416814BFA14321434160D6F8ED
:100910001002012F0CBF2043A043C6F81002BDE80F
:10092000F087B2F5805F70D0B2F5405F18BFBDE8C8
:10093000F087986840F40010986001230022052099
:1009400000F006FE4148012D416814BFA143214338
:100950004160D6F83002012F0CBF2043A043C6F8F7
:100960003002BDE8F087986840F0010098600022EE
:100970000123104600F0ECFD3548012D416814BFFD
:10098000A14321434160D6F80002012F0CBF204350
:10099000A043C6F80002BDE8F087986840F0020066
:1009A000986001230022184600F0D2FD2948012D4D
:1009B000416814BFA14321434160D6F80003B8F158
:1009C000010F0CBF2043A043C6F80003BDE8F08729
:1009D000FFE7986840F01000986001230022032090
:1009E00000F0B6FDD9F80400012D14BFA043204348
:1009F000C9F80400D6F82002012F0CBF2043A04301
:100A0000C6F82002BDE8F087FFE7986840F02000B4
:100A1000986001230022042000F09AFD0E48012D69
:100A2000416814BFA14321434160D6F82003B8F1C7
:100A3000010F0CBF2043A043C6F82003BDE8F08798
:100A400000500140000001400030014000800140A2
:100A500000100140002001400060014002680123B5
:100A600003FA01F1114301607047000010B54FF027
:100A7000E0214FF48020C1F8000102210348FFF774
:100A8000F7FE0349202081F8000410BD003001402A
:100A900012E000E02DE9F04387B088460221ADF86E
:100AA000041000260121ADF80260ADF80E108DF89B
:100AB00000008DF80C00901EADF8100008F1020047
:100AC0009146CDF80880059002276D46002404EB7E
:100AD000440305EB83008178027911F0010F8168EE
:100AE00015F8230002D001F0E5FD01E001F01CFE45
:100AF000641C30B10446022C06D0761C052EE3DBC4
:100B000004E0BC42E3D1F6E7052E08DBB8F80000AC
:100B1000234641BAA9F10202034801F0E9F807B0FF
:100B20002046BDE8F0830000CCBC04002DE9F04372
:100B300083B00026ADF80260904689468DF800002B
:100B4000ADF80420029101276D46002404EB440314
:100B500005EB83008178027911F0010F816815F8A7
:100B6000230002D001F0A6FD01E001F0DDFD641CD0
:100B700030B10446012C06D0761C052EE3DB04E0E0
:100B8000BC42E3D1F6E7052E08DBB9F800002346A6
:100B900041BAA8F10202034801F0AAF803B02046C6
:100BA000BDE8F0831CBD04002DE9F04182B0B826F9
:100BB00001F018FD464801273C46006800900322DA
:100BC0006946BA20FFF766FF45B2002D08DC2146D2
:100BD000404801F08DF82046611CCCB20528EED3C8
:100BE000002D06DA3CA001F083F802B02846BDE8EB
:100BF000F08100F0AFF843480078002814BFDFF818
:100C00000881DFF80881BA25414CF021A01CFFF7CC
:100C10000CFB2A464146A01CFFF7EEFA00210220F9
:100C2000B21C022A05DD235C401C1944C9B2824271
:100C3000F9DCC843411CA01900248170C770321D23
:100C40003349BA20FFF772FF0028DCBF641C052C73
:100C5000F5DB30480090401E0090FCD1FFF706FF06
:100C600000200090802501908DF8005048208DF8DC
:100C7000010006226946BA20FFF70CFF002822DB9C
:100C80009DF802009DF803108DF8005000EB012044
:100C900086B29DF804009DF80510032200EB0120A8
:100CA00084B24D208DF801006946BA20FFF7F2FEAC
:100CB000002808DB9DF80200224600F003033146BD
:100CC00015A001F015F802B00020BDE8F081000089
:100CD000BCBA0400FC0E00003C3C2D4754502D458E
:100CE00052524F522D3E3E2049324320636F6D6D6C
:100CF000756E69636174696F6E204552524F52215F
:100D00000A00000018040020DB0400202104002059
:100D100095050020FFFF0F003C3C2D4754502D4906
:100D20004E464F2D3E3E20585F4D4158203D2025D8
:100D3000642C20595F4D4158203D2025642C2054BF
:100D4000524947474552203D203078253032780AB5
:100D50000000000030B52D4887B00822D0E903100C
:100D6000CDE9041004A9BA20FFF794FE050005D5CB
:100D700027A000F0BDFF07B0284630BD9DF8151034
:100D80002E4CC1B19DF816009DF817200091CDE9B9
:100D900001209DF814309DF813209DF8121028A012
:100DA00000F0A6FF9DF81200392804BF9DF813003B
:100DB00031281ED027E09DF816109DF81700CDE9C8
:100DC00000019DF814309DF813209DF8121028A002
:100DD00000F08EFF9DF81200392804BF9DF8130023
:100DE000312810D19DF81400312808BF01200AD104
:100DF00008E09DF81400352802BF9DF8150037283B
:100E0000002000D1207007B0284630BDBCBA0400D5
:100E10003C3C2D4754502D4552524F522D3E3E20C2
:100E200047545020726561642076657273696F6EF5
:100E3000206661696C65640A0000000018040020E7
:100E40003C3C2D4754502D494E464F2D3E3E2049A7
:100E500043322056657273696F6E3A2025632563AD
:100E6000256325635F25303278253032780A00000B
:100E70003C3C2D4754502D494E464F2D3E3E204977
:100E800043312056657273696F6E3A20256325637E
:100E900025635F25303278253032780A0000000063
:100EA00000F06CB8F8B5144F0126012438680090A2
:100EB00003226946BA20FFF7EDFD45B2002D08DC9C
:100EC00021460EA000F014FF2046611CCCB205287C
:100ED000EED3002D04DD15A000F00AFF2846F8BD72
:100EE00001F080FB3046711CCEB20A28DDD318A079
:100EF00000F0FEFE2846F8BDBCBA04003C3C2D477D
:100F000054502D4552524F522D3E3E2047545020B2
:100F10006932632074657374206661696C6564204E
:100F200074696D652025642E0A0000003C3C2D4745
:100F300054502D494E464F2D3E3E20475450207769
:100F4000616B65757020736C6565702E0A0000001A
:100F50003C3C2D4754502D4552524F522D3E3E2081
:100F60004754502077616B65757020736C656570B0
:100F7000206661696C65642E0A0000002DE9F04F5F
:100F800073A099B0002400680494724E03940594F1
:100F900006940794099408940A940B940C9418905E
:100FA00070680290BA2027460C2202A90D90FFF724
:100FB00071FD002806DA014667A000F099FE19B01D
:100FC000BDE8F08F9DF80A00002804BF19B0BDE805
:100FD000F08F10F0800F00F0AD8000F00F05052DB0
:100FE00000F2A8800DF1080B4FF0FF39012D1BD93D
:100FF0000F941094119412941394149415941694BD
:101000001794B0680E906FF0050000EBC5020EA9B2
:101010000D98FFF73FFDE800A0F108020DF13A013D
:101020000BF10C00FFF7E8F85748DFF860A14088A3
:10103000A8422CD90028C8BFA5F1010827DD00244B
:10104000002D1FD90BEBC4001AF80760C07800F020
:101050000F00864216D0444510DB0022511E084680
:101060000FF022FA4A4820F816900A3020F816901D
:1010700032464FF4A17147A000F03AFE601CC4B2A2
:10108000AC42DFD340487F1C40888742D7DB002D2D
:1010900018BF0024C4BFDFF8F89009F10A0B25D06F
:1010A00046DD02A800EBC400C17801F00F060AF883
:1010B0000460B0F80480C78800894346CDE9007019
:1010C000324640F21D113EA000F012FE39B20FFA76
:1010D00088F001220F4680460FF0E6F929F81680C5
:1010E0002BF81670641CA542DBDC21E0264F7888C3
:1010F000002818BF0024C4BFDFF8948008F10A0B51
:1011000016DD4FF0FF311AF804604FF00002084678
:101110000FF0CAF928F816902BF8169032464FF4C3
:10112000A1711CA000F0E4FD7888641CA042E8DCFA
:1011300015484580032218A90D98FFF7F7FC0028F1
:10114000BCBF2BA000F0D4FD19B0BDE8F08F0000AB
:10115000814E0000BCBA04003C3C2D4754502D4544
:1011600052524F522D3E3E20493243207472616EDE
:1011700073666572206572726F722E206572726E70
:101180006F3A25640A200A00180400201C0400207D
:10119000880600203C3C2D4754502D44454255477D
:1011A0002D3E3E205B25645D546F75636820696445
:1011B0005B2532645D2072656C65617365210A0090
:1011C0003C3C2D4754502D44454255472D3E3E2032
:1011D0005B25645D49443A25642C20583A25642CEB
:1011E00020593A25642C20573A25640A0000000053
:1011F0003C3C2D4754502D494E464F2D3E3E2049F4
:10120000324320777269746520656E645F636D6434
:10121000206572726F72210A0000000070B4A0F1A4
:101220008042B2F520324FF0804304BF9A6842F406
:10123000003206D0B2F5805F04BF9A6842F4802283
:1012400000D19A60426822F0800242600B784FF42D
:101250008054594A6500012B66D0036943F480230A
:101260000361036923F4710323F07C530361036971
:1012700091F801C0660143EA0C43B1F80AC046EA9E
:101280000C5C43EA0C0303610F234361036923F001
:101290003F0303610B7B002B0CBF0123002391F85C
:1012A0000DC0BCF1000F0CBF4FF0010C4FF0000C53
:1012B00043EA4C0C8B7B002B0CBF012300234CEA30
:1012C000830CCB7B002B0CBF012300234CEAC30C07
:1012D0000B7C002B0CBF012300234CEA031C4B7C2E
:1012E000002B0CBF012300234CEA4313D0F810C09D
:1012F00043EA0C030361A0F52030B0F180404BD0ED
:10130000B0F5805F1CBF70BC7047087B4B7B91F8C9
:101310000FC018438B7B43EA0C0318430B7C497CBA
:101320001843084334D025E0244BDFF894C01B68F1
:10133000ACFB03C3D1F804C09B08B3FBFCF3036010
:10134000C36843F00103C360436823F04003436074
:10135000436891F808C043EA8C134360A0F520303D
:10136000B0F180400AD0B0F5805F1CBF70BC704700
:10137000087A68B1C2F8005170BC7047087A18B199
:10138000C2F8004170BC7047C2F8804170BC704721
:10139000C2F8805170BC7047087B4B7B91F80FC03E
:1013A00018438B7B43EA0C0318430B7C497C18439E
:1013B0000843E9D0E4E7000004E000E0000000207A
:1013C000CDCCCCCC416841F0800141607047000039
:1013D00010B5044C204600F007F82046BDE8104048
:1013E00000F0B0B8002000400121416070470000CB
:1013F0002DE9F003A0F18042B2F5005205D14FF083
:101400008042936843F4801393600A784FF0000C95
:10141000012312B1012A61D06FE0C0F80CC0454A27
:101420004F78540115125611002F4F882BD0B1F868
:1014300004804FEA420909EB88287F1E47EA080723
:1014400091F80C8047EA085791F80D8047EA485711
:10145000476191F806804F7805EB48053D43CF7909
:1014600006EB07160F7A02EB472232432A434D7AE6
:1014700004EB853422438C7A42EA4452CC7A42EA25
:101480008462826139E0B1F80480BF02A7F5806709
:10149000A8F1010847EA080791F80C8047EA0857C5
:1014A00091F80D8047EA4857476191F806804F78D8
:1014B00002EB48223A43CF7904EB87340F7A05EBED
:1014C00047052C4322434C7A06EB041422438C7AC2
:1014D00042EA4452CC7A42EA84620DE0C3608A7BDD
:1014E000CC7B920642EAC4520C7C42EA44544A7CC9
:1014F00044EA824242F480328261036043608A7C23
:10150000002A14BFC0F808C08360A0F50050B0F1F5
:10151000804F1CBFBDE8F00370478A7C0220002A80
:10152000054914BFC1F80001C1F88001BDE8F0030E
:101530007047000000FEFFFF04E000E0C068C0F359
:1015400040007047C16841F00201C160704700006F
:101550002DE9F04F01EB810C4FF01F0BA2F1640A53
:101560000BFA0CF90AFA0CF8A1F1060C0CEB8C0C36
:101570000BFA0CF70AFA0CF64FEA410C032585B07A
:10158000012405FA0CF5A1F10C0E8C400EEB8E0E29
:101590008B40CDF800E00BFA0EFECDF808E0DDF848
:1015A00000E00AFA0EFECDF804E0A1F1120E0EEBF7
:1015B0008E0E0BFA0EFB0AFA0EFACDE903ABACF174
:1015C000200A4FF0030B0BFA0AFBCDF800A0DFF85E
:1015D000B4A3062824BF05B0BDE8F08FDFE800F013
:1015E00003396FA5FDFC632A1AD906290CD2DAF853
:1015F000000120EA0900CAF80001DAF8000140EA17
:101600000800CAF800010BE00C2909D2DAF804013D
:10161000B843CAF80401DAF804013043CAF80401F7
:10162000DAF80000A843CAF80000632A88BF012244
:1016300002FA0CF0DAF800100843CAF80000D248A9
:101640000168A143016001681943016005B0BDE86C
:10165000F08F632A1AD906290CD2DAF8100120EA91
:101660000900CAF81001DAF8100140EA0800CAF8C7
:1016700010010BE00C2909D2DAF81401B843CAF8BA
:101680001401DAF814013043CAF81401DAF804003E
:10169000A843CAF80400632A88BF012202FA0CF0AA
:1016A000DAF804100843CAF80400B8480168A143F6
:1016B000016001681943016005B0BDE8F08F632A3D
:1016C0001AD906290CD2DAF8200120EA0900CAF852
:1016D0002001DAF8200140EA0800CAF820010BE0F6
:1016E0000C2909D2DAF82401B843CAF82401DAF83F
:1016F00024013043CAF82401DAF80800A843CAF8E4
:101700000800632A88BF012202FA0CF1DAF8080007
:101710000843CAF808009E480168A14301600168B7
:101720001943016005B0BDE8F08F632A3AD9062954
:101730000CD2DAF8600120EA0900CAF86001DAF890
:10174000600140EA0800CAF860012BE00C290AD2C7
:10175000DAF86401B843CAF86401DAF86401304386
:10176000CAF864011EE012290DD2DAF86861029805
:1017700026EA0000CAF86801DAF868610198304387
:10178000CAF868010EE018290CD2DAF86C610498E6
:1017900026EA0000CAF86C01DAF86C61039830435D
:1017A000CAF86C0110291BD2DAF82000A843CAF845
:1017B0002000632A88BF012202FA0CF0DAF8201018
:1017C0000843CAF8200073480168A143016001681A
:1017D0001943016005B001E06CE013E0BDE8F08F53
:1017E000DAF8240020EA0B00CAF824000098632AE3
:1017F00088BF012202FA00F0DAF824100843CAF880
:101800002400E0E7632A2AD906290CD2DAF870010D
:1018100020EA0900CAF87001DAF8700140EA08000D
:10182000CAF870011DE00C290AD2DAF87401B84335
:10183000CAF87401DAF874013043CAF8740110E090
:10184000122925D2DAF87861029826EA0000CAF84F
:101850007801DAF8786101983043CAF878011029E4
:1018600016D2DAF83000A843CAF83000632A88BFDD
:10187000012202FA0CF0DAF830100843CAF83000FE
:1018800045480168A1430160016819430160A1E76F
:10189000DAF8340020EA0B00CAF834000098632A12
:1018A00088BF012202FA00F0DAF834100843CAF8BF
:1018B0003400E5E7632A2AD906290CD2DAF8800138
:1018C00020EA0900CAF88001DAF8800140EA08003D
:1018D000CAF880011DE00C290AD2DAF88401B84365
:1018E000CAF88401DAF884013043CAF8840110E0B0
:1018F000122925D2DAF88861029826EA0000CAF88F
:101900008801DAF8886101983043CAF88801102903
:1019100025D2DAF84000A843CAF84000632A88BFFD
:10192000012202FA0CF0DAF840100843CAF840002D
:101930001A480168A143016001681943016049E741
:1019400018290CD2DAF88C11049821EA0000CAF8A0
:101950008C01DAF88C1103980843CAF88C01DAF884
:10196000440020EA0B00CAF844000098632A88BFAC
:10197000012202FA00F0DAF844100843CAF84400E1
:10198000D6E70000000001400006014010060140BB
:10199000200601404006014050060140600601401B
:1019A0004FF080418A6842F080628A604A6822F083
:1019B0000C024A604A6842F004024A604FF0F0416B
:1019C00022220A6042785305C278102A14BF0122ED
:1019D000002243EA02528378007842EAC342102888
:1019E00014BF0120002042EA8040064A10434860AC
:1019F0000220086141F2FA00886048690028FCD0A2
:101A0000704700001BFE030031B500F009F80446E2
:101A100000F006F80099001B8842F9D338BD000099
:101A20000148006870470000140400200248016863
:101A3000491C0160704700001404002010B50446E2
:101A400084B00123642202210020FFF781FD0023DE
:101A5000642203211846FFF77BFD002000948DF8D7
:101A600004008DF805008DF80800084C8DF806007C
:101A70008DF80A008DF80C006946204600F082F8C7
:101A8000204600F02EF904B010BD00000000024016
:101A900010B5FFF7CBFF00F001F810BD10B5012025
:101AA0000DF098F906490888401C00B208800A2801
:101AB00018BF10BD002008800120488010BD000024
:101AC000EC0300200B484FF47A710068B0FBF1F092
:101AD000401EB0F1807F0BD24FF0E0214861064AF2
:101AE000E02082F8140D002088610720086170470B
:101AF000FEE70000000000200FE000E04FF0804112
:101B00000868114A10F0040F104B1148D1F800C0BA
:101B10000AD01CF0020F0FD11B6813F0010F1CBF7D
:101B20000C4A026009D107E01CF0010F1DBF5B6A7F
:101B30000260094A4FF4FA420260496811F0010F4D
:101B40001CBF510801607047002D31010010034097
:101B500000000020005A620280A4BF0700B54FF0C9
:101B60008043986840F4800098600EF0A7F85868A9
:101B700020F001005860586858605DF804EBFFF7EA
:101B8000BDBF0000A0F18042B2F500324FF08043AB
:101B900004BF9A6842F4006214D0B2F5805F04BFBB
:101BA0009A6842F480520DD0B2F5005F04BF9A6883
:101BB00042F4005206D0B2F5405F04BF9A6842F486
:101BC000804200D19A60426822F40072426042680A
:101BD00042F40052426082686FF30D0282603C4A18
:101BE0000B6812681209B2FBF3F28368521E1A43A3
:101BF0008260426822F47C02426042680B7991F86C
:101C000006C042EA83424B79DB0443EA8C531A4311
:101C10004260C26892B2C260CA794B7A120442EA48
:101C20000362C3681A43C260426822F07F42426086
:101C30004268CB7A42EA03624260426822F01402B0
:101C400022F48042426042680B7A91F80CC042EA6A
:101C500003128B7A9B0043EA8C331A4342601D4A7D
:101C6000A0F50030B0F1804012D0B0F5805F1DD0FB
:101C7000B0F5005F23D0B0F5405F18BF7047087A19
:101C80008B7A097B184301434FF480600BD007E047
:101C9000087A8B7A097B184301434FF0800002D009
:101CA000C2F800017047C2F880017047087A8B7A49
:101CB000097B184301434FF48070F4D0F0E7087AB1
:101CC0008B7A097B184301434FF40070EBD0E7E7B0
:101CD0000000002004E000E04068012121EA00004B
:101CE0007047416841F4007141607047016070477E
:101CF0000FB4054B10B503A9044A029800F0DAF8B6
:101D000010BC5DF814FB0000952F00009C0600201D
:101D100002E008C8121F08C1002AFAD170477047B4
:101D2000002001E001C1121F002AFBD17047000012
:101D30002DE9FF5F82B00021DDE90430020DDDF8FE
:101D400040B0034318D044F61050A2F2FF32424391
:101D50001514119801281FD0A5EB0B00401C5FEA59
:101D6000000A4FF000064E4FDFF83891B04650465B
:101D700015D5CAF1000413E0119801244AA30128E3
:101D800001D16FEA0B010298119AC0E90031C0E954
:101D9000024206B0BDE8F09FCBF10000DFE7044649
:101DA0000021404A491842EB0450CDE9001012E0EE
:101DB000E00707D032463B4640464946FEF74CFB1B
:101DC0008046894632463B4610461946FEF744FB9C
:101DD00006460F466410002CEAD1DDE90401DDE976
:101DE0000023BAF1000F06DAFEF736FB42464B46F7
:101DF000FEF732FB05E0FEF7A1FB42464B46FEF73D
:101E00009DFB04460E460022284BFEF71FFC03D81C
:101E10004FF0FF30014607E00022254B20463146B7
:101E2000FEF773FAFEF7F9FB102409E0002C0ADB39
:101E30000A220023FEF738FA039B30321A55641E3B
:101E400050EA0102F2D1641C039AC4F11103144454
:101E5000119A012A03D0012208430DD10AE0084358
:101E600004D000204FF0110B119072E7A3EB0B058B
:101E70006D1E0DE05B4504DD4FF0000205F101052C
:101E800004E003DA4FF00002A5F10105002AECD0CE
:101E900002981199C0E90231C0E9004579E70000D4
:101EA000000014400000F03F300000000000F0434C
:101EB0000000E03F2DE9FF4F95B09B46894606465E
:101EC00000250FE2252877D100242746F84A012172
:101ED000059400E0044316F8013F203B01FA03F0AB
:101EE0001042F7D130782A2811D06FF02F033078C4
:101EF000A0F13002092A16D8059A44F0020402EB38
:101F0000820203EB42021044761C0590EFE759F879
:101F1000042B0592002A03DA504244F40054059041
:101F200044F00204761C30782E2816D116F8010FE2
:101F300044F004042A280DD06FF02F023078A0F16D
:101F40003003092B09D807EB870302EB4303C718BB
:101F5000761CF3E759F8047B761C30786C280FD098
:101F600006DC4C2817D068280DD06A2814D104E06C
:101F7000742810D07A280FD10DE044F400140AE040
:101F800044F4801401E044F440147278824202D197
:101F900004F58014761C761C307866280BD013DC90
:101FA000582877D009DC002875D04528F6D0462877
:101FB000F4D047281AD19DE118E0632835D0642871
:101FC00079D0652812D195E1702873D008DC672894
:101FD000F1D069286FD06E280DD06F2806D1B5E0FA
:101FE00073282CD0752875D0782874D05A46179944
:101FF00090476D1C75E1C4F30250022809D00328F4
:102000000DD0D9F8001004280DD00D6009F1040995
:1020100067E1D9F80010EA17C1E90052F6E7D9F8EC
:1020200000100D80F2E70D70F0E719F8041B8DF831
:10203000001000208DF80100EA46012003E059F865
:1020400004AB4FF0FF3061074FF0000102D40DE008
:1020500008F101018846B9420FDA8045F8DB1AF829
:1020600008100029F4D108E008F1010188468142F6
:10207000FADB1AF808100029F6D105985B46A0EBA8
:10208000080721463846179A00F094FA284400EBD6
:10209000080507E04DE029E10DE01AF8010B5A466A
:1020A00017999047B8F10108F7D25B4621463846A8
:1020B000179A13E142E00A220092C4F302524FF051
:1020C000000A022A08D059F804CB032A4FEAEC711F
:1020D0000AD00DE029E02AE009F1070121F007020A
:1020E000F2E802C1914609E00FFA8CFC4FEAEC716C
:1020F000042A03D14FFA8CFC4FEAEC71002907DA6D
:102100000A460021DCF1000C61EB02012D2202E005
:10211000220504D52B228DF80420012203E0E207DA
:1021200001D02022F7E7904659E00A2102E0102270
:102130000DE010214FF0000A00910BE010224FF04B
:10214000000A44F004040827009203E008224FF03C
:10215000000A0092C4F30252022A05D059F804CBB7
:102160000021032A08D009E009F1070121F0070244
:10217000F2E802C1914605E01FFA8CFC042A01D165
:102180000CF0FF0C4FF00008220728D5702806D06D
:10219000009B83F0100353EA0A0305D00EE04022AF
:1021A0008DF80420012208E05CEA010206D030220A
:1021B0008DF804208DF8050002229046009B83F0E4
:1021C000080353EA0A030AD15CEA010201D162075B
:1021D00005D530228DF804204FF001087F1E5828C5
:1021E00004D034A003900EA802900DE036A0F9E7C9
:1021F00053466046009AFEF757F884460398825C7F
:102200000298401E029002705CEA0100F0D1029830
:1022100006A9081A00F1200A600702D524F48034C8
:1022200000E00127574502DDA7EB0A0000E000208F
:1022300000EB0A01009005984144401A0590E00324
:1022400006D45B462146179A059800F0B3F9054479
:10225000002706E001A85A46C05D179990476D1CFB
:102260007F1C4745F6DBE0030CD55B462146179AF9
:10227000059800F09FF9054404E030205A4617996C
:1022800090476D1C0099481E00900029F5DC08E07D
:10229000029802995A460078491C02911799904772
:1022A0006D1CBAF10001AAF1010AF1DC65E1000040
:1022B000092801003031323334353637383961621C
:1022C00063646566000000003031323334353637E0
:1022D00038394142434445460000000000F058F9B7
:1022E0000544761C307800287FF4ECAD19B0284600
:1022F000BDE8F08F620700D4062709F1070222F03B
:10230000070CFCE80223E14603F000485FEA080CF2
:1023100002D00FF2702C0DE05FEA045C02D50FF2E0
:10232000682C07E05FEAC47C02D00FF2602C01E069
:10233000AFF2700C4FF0FF3823F00043CDF850C0DF
:1023400065280CD006DC452809D046281DD0472832
:102350003DD13DE0662818D067287ED138E00021C5
:10236000112F01DB112000E0781CCDE9000106A946
:102370000EA8FFF7DDFCDDE90F010E9A03910021A5
:10238000009207F1010A04914DE04FF000400097E0
:10239000CDE9011006A90EA8FFF7CAFCDDE90F027E
:1023A00003920E9B11990022DDF80CA00093049279
:1023B00011B9791C00EB010AB7EB0A0004D4C0F193
:1023C000FF3007F1010A0490AAEB0700019044E0F6
:1023D000012F00DA01270021112F01DD112000E07B
:1023E0003846CDE9000106A90EA8FFF7A1FCDDE9FA
:1023F0000F010E9A0391002104910092BA46210721
:102400000CD40399514500DA8A46BAF1010F05DD73
:10241000009AAAF10101515C302908D0B84202DAD1
:1024200010F1040F06DA0121CDE9011015E0AAF13F
:102430000101E9E7002805DC049901440491AAEBB5
:10244000000102E0411C514500DD8A460499401A12
:10245000401C01904FF000400290200704D40198E6
:10246000504501DBCDF8048000208DF84F00029824
:102470000DF14F07B0F1004F25D02B200E900298A0
:102480004FF0020800280CDA404202902D200E90F6
:1024900007E00A210298FDF7F1FE3031029007F8BB
:1024A000011DB8F10001A8F10108F2DC0298002832
:1024B000EFD1791E0E980870307800F0200040F0BF
:1024C000450007F8020D12A8C01B00F10708149878
:1024D000007800B1012000EB0A01019801EBE071E6
:1024E00005984144401A401E0590E00306D45B461F
:1024F0002146179A059800F05DF805441498007875
:1025000018B15A46179990476D1CE00324D55B46D5
:102510002146179A059800F04DF805441CE00498F0
:10252000002807DBDDE90301884203DD0098405CF9
:10253000179901E0179930205A469047049805F101
:102540000105401C04900198401E019004D12E20EA
:102550005A46179990476D1CBAF10001AAF1010A79
:10256000DDDC05E017F8010B5A46179990476D1C02
:10257000B8F10001A8F10108F4DC5B462146179A86
:102580000598ABE62D0000002B00000020000000A5
:102590002DE9F041044600251E461746880404D460
:1025A00005E039462020B0476D1C641EF9D5284649
:1025B000BDE8F0812DE9F041044600251E46904615
:1025C000C80301D5302700E02027880404D505E0A2
:1025D00041463846B0476D1C641EF9D52846BDE813
:1025E000F081000030B585B000242F4D2346012234
:1025F000032128460094FEF759F900230122022105
:1026000028460094FEF752F903212846FEF746F9C2
:1026100002212846FEF742F90A20FFF7F5F90321C7
:102620002846FEF71BFA0A20FFF7EEF900231A46A8
:10263000022128460094FEF739F90122022128469A
:10264000FEF7ECF80123692204210020FEF780FF49
:10265000164DD5F8000240F01000C5F80002012325
:1026600069220521002005F50075FEF771FF286835
:1026700040F02000286001208DF800008DF8010056
:102680008DF8084042F21070094C019069462046CE
:10269000FEF7C4FD2046FEF795FE05B00A20BDE812
:1026A0003040FFF7B1B900000030014000000140A8
:1026B0000080024010B41B4B9024DC60D3F80CC0A7
:1026C0001CF0020FFAD140F001009860DC60D8687D
:1026D00010F0020FFBD1D86810F0800F1EBF012050
:1026E00010BC70474FF0000C521E002AC8BF2024B7
:1026F0000DDDDC60D86810F0020FFBD1986801F89E
:10270000010B0CF1010000F0FF0C9445F1DB682097
:10271000D860D86810F0020FFBD19868087010BC20
:102720000020704700800240194B10B49860902040
:10273000D860D86810F0020FFBD1D86810F0800F75
:1027400023D14FF0000C002A88BF102411D911F8B2
:10275000010B9860DC60D86810F0020FFBD1D868DC
:1027600010F0800F11D10CF1010000F0FF0C944526
:10277000EDD34020D860D86810F0020FFBD1D868A4
:1027800010F0800004BF10BC7047012010BC7047DF
:10279000008002402DE9F84F8046974A002109F059
:1027A00061FD954A0121404609F05CFD0024254663
:1027B000404609F057FA2A46214603F007FB4046F7
:1027C00008F050FE0446404609F04CFA214608F055
:1027D00033FF0021404609F02BFD884988480AF064
:1027E00055FC87484FF0990A4FF00009854D80F855
:1027F00008A0A0F80690286D834E0090BDF8000058
:10280000A6F89C014946404602F0E4FA7F4C20605D
:10281000404608F027FE0746404608F063FE7C4924
:10282000400081FB0010A0EBE07001B207EBD77015
:102830004210206808F098FF19200023009002221F
:102840001946206808F04EFA0221206802F002FEC4
:1028500006F5B471206808F0BBFFB221206802F0D1
:10286000EAFD696D206802F08AFA074601462822CF
:10287000206802F0A4FD1E223946206802F09FFD68
:102880002F223946206802F09AFD3B223946206803
:1028900002F095FD3B223946206802F090FD1F2290
:1028A0003946206802F08BFD37223946206802F055
:1028B00086FD46223946206802F081FD52223946C3
:1028C000206802F07CFD4D4906F5D2700AF0DEFB6F
:1028D000CDF80090BDF80000A6F8A601A86D009004
:1028E000BDF80000A6F8A80106F5D27043F6FF7BFC
:1028F000A0F806B0E96D0091BDF80010A6F8AE1181
:1029000080F808A0A0F818900A27C7823B493C30FD
:102910000AF0BCFB286E0090BDF80000A6F8E401A8
:10292000686E0090BDF80000A6F8E20106F5F070B0
:10293000A0F806B04782A96E0091BDF80010A6F875
:10294000F01103210183C1822C493C300AF09EFB27
:1029500006F50770B221A0F806B0017200214046CA
:102960000AF048F8054606F5D27200210AF03AFA54
:1029700006F5F072012128460AF034FA06F50772CE
:10298000022128460AF02EFA206808F0ABFD014625
:102990002122284608F0E8FE284608F063FD216859
:1029A0000023B1F91620C2F5F072101A00EBD070B6
:1029B000401000B200900D22284608F093F9154906
:1029C00028460AF009FA28464FF47A72394601F08F
:1029D00091F928464FF42F7101F0CCF928460AF0FE
:1029E000ECF90D4991FBF0F002B22068BDE8F84F18
:1029F000002102F00BBD00006408002054090020F3
:102A00006C890120C84C01000488012000040020CA
:102A10005655555521FC0000A086010070B50446AE
:102A2000001D07F0EDFD050009D02946201D07F027
:102A3000EDFD06462846FFF7F1FF3500F5D1E06AC7
:102A400000281CBF204606F066F9002006F0EAFBCD
:102A500005000CD0286AA04219BF686AA042284627
:102A600006F0F9FB284606F0DDFB0500F2D12068F0
:102A70002146001D07F061FE0022A3691146204691
:102A80009847206A002818BF08F090F82046BDE853
:102A9000704008F08BB800002DE9F04F83B009F0CA
:102AA00067FF002106F072F98246FA4906F06AFAD9
:102AB0004FF44861504608F09DFE0421504608F04E
:102AC0004BFEF549F5480AF0E1FAF54DF34C0026C6
:102AD00028680090BDF80000608068680090BDF82C
:102AE0000000A0802046EF49C6823C300AF0CEFAB2
:102AF00004F13C004FF0010880F81C808681EA490F
:102B00003C300AF0C3FA04F178004FF07F09C68028
:102B100080F80890A9680091BDF80010A4F87A1018
:102B2000E9680091BDF80010A4F87C10868128693E
:102B30000090BDF80000A4F8980009F019FF0021EA
:102B40000BF0B8FD0746006A8168504608F07CFD2E
:102B5000721F0021504608F0A1FDD4A138460BF0A9
:102B6000F3FC8246D3A138460BF0EEFC8346D3A19A
:102B700038460BF0E9FC01902246022138460BF062
:102B800019FFC54A012138460BF014FF04F13C023D
:102B9000032138460BF00EFF04F178020421384679
:102BA0000BF008FF04F13C02052138460BF002FF50
:102BB00004F17802062138460BF0FCFEC14A0021E0
:102BC000504609F04FFBBF4A0121504609F04AFB2D
:102BD0000021504609F02CFBBB4904F1B4000AF077
:102BE00055FA04F1B4004C210172C6806869009066
:102BF000BDF80000A4F8D400002150460AF0A8FE59
:102C0000B24F7860504608F02DFC0090504609F015
:102C100029F808F067FC0146009800EBD0704210DC
:102C2000786808F0A1FD04F1B402002178680BF087
:102C300016FBA7A178680BF034FBA649786809F069
:102C4000F1FA954904F516700AF020FA04F51670A9
:102C5000B2210172A9690091BDF80010A4F85A12BE
:102C6000E9690091BDF80010A4F85C120683C682E1
:102C7000468389493C300AF009FA04F5257080F84A
:102C80001C80C680A0F80C80296A0091BDF8001055
:102C9000A4F89E1280F80F90686A0090BDF80000BA
:102CA000A4F89602A86A0090BDF80000A4F8980263
:102CB000E86A0090BDF80000A4F8B402764904F573
:102CC00034700AF0E3F904F53470C68080F8089097
:102CD000296B0091BDF80010A4F8D212696B009125
:102CE000BDF80010A4F8D412A0F80C80A86B0090D6
:102CF000BDF80000A4F8DA02786800F0EDFC714A33
:102D00000021584609F0AEFA6E4A0121584609F0F2
:102D1000A9FA584608F0A6FF3246114603F056F8C5
:102D2000584608F09FFB0746584608F09BFF394677
:102D300008F082FC0021584609F07AFA594904F15A
:102D4000F0000AF0A3F9E86B0090BDF80000A4F8C9
:102D5000F2000096BDF80000A4F8F400286C009082
:102D6000BDF80000A4F8FA0004F1F0000146A0F854
:102D70000C8080F80F90C6803C300AF087F9686CB0
:102D80000090BDF80000A4F82E01A86C0090BDF8DA
:102D90000000A4F83001E86C0090BDF80000A4F831
:102DA0004C010021584607F075F90446584608F0D2
:102DB00059FB4949400081FB0010A0EBE07001B2D3
:102DC000204608F039FC454A0021204607F0B5FAB4
:102DD000424A0121204607F0B0FA414A0321204629
:102DE00007F0ABFA3F4A0421204607F0A6FA192063
:102DF0000023009002221946204607F073FF3A4B49
:102E00003AA23BA1204607F0B1F8374B39A23BA1CB
:102E1000204607F0ABF8344B39A23BA1204607F01F
:102E2000A5F8314B39A23BA1204607F09FF82E4B65
:102E300039A23BA1204607F099F82B4B39A23BA1C0
:102E4000204607F093F8284B39A23AA1204607F014
:102E50008DF80021584607F003FD044636A107F01F
:102E6000E8FD4FF42F71204608F0C4FC00223F49D2
:102E7000204607F0A7FC322000900023022259468A
:102E8000204607F02FFF019803B0BDE8F04FFFF791
:102E900081BC0000B4BA0400DC08002004880120D2
:102EA000C84C0100CC090020080A00205772697440
:102EB000650000004C697374000000004368617293
:102EC0007400000064080020540900200004002061
:102ED00000000000D936000056555555A0080020C6
:102EE000F488012030890120813700004E65770089
:102EF000EF80AA004F70656E00000000EF80A00018
:102F000044656C6574650000EF80870045646974F2
:102F100000000000EF809000536176650000000023
:102F2000EF80A5005769466900000000EF80AB0004
:102F300047505300EF80A900436C69636B20612008
:102F4000627574746F6E20746F20636F707920697E
:102F50007473207465787420746F207468652054CD
:102F60006578742061726561200000000C04002007
:102F7000002804BF05487047011D006801EB5000A0
:102F8000034A011D914228BF00207047F8870020A6
:102F9000F887012070B5064D0446C1B22846FEF7F9
:102FA000A5FE2846FEF798FE0028FAD1204670BDFF
:102FB000000002402DE9F0410E4608F04FFA0746A6
:102FC000008CB04218D3002425467EB1681C85B21F
:102FD000601C84B238680A4950F82400FDF737F9BC
:102FE000002804BF601C84B2B542EFD1388CA842DF
:102FF0001CBF2046BDE8F0814FF6FF70BDE8F081B0
:103000008C48000070B50D4608F02CFE0646294697
:1030100008F0FBF9002808BF70BD094C81692268DF
:10302000914208BF70BD2946304608F0EEF90028ED
:1030300008BF70BD826921688A42F4D170BD00006A
:1030400054030020A0F1300109299CBFC8B2704789
:10305000612824BF2038C0B24138062810D2DFE8EA
:1030600000F0030507090B0D0A2070470B2070477D
:103070000C2070470D2070470E2070470F207047BE
:10308000002070472DE9F84F04464569007F10F095
:10309000040F18BFBDE8F88F1DB110F0020F09D062
:1030A0001CE006F05DFF0146204600F0D9FA05005D
:1030B00014D10CE01021284608F076FA70B906F019
:1030C0004FFF0146204600F0CBFA050006D109F07B
:1030D0004FFC0146204600F0C3FA054660698F4F59
:1030E000A84244D0A1882181E188618150B18369DF
:1030F00008213A68984794F8280010F0020F18BF8A
:10310000BDE8F88F9DB30BF05BFE206294F82800B9
:1031100020F0010084F82800207F20F003002077B1
:103120000020208260822846002690F8301011F09E
:10313000200F18BF064608F0A0F90028F5D156B1B7
:10314000304608F09AF9011D3246001D07F024FAB6
:10315000304608F0D9F9AB69062128463A68984705
:1031600094F8280010F0020F18BFBDE8F88F6561D1
:10317000A561A0882189401AA081E0886189401A50
:10318000E081002D08BFBDE8F88FAB690721284614
:103190003A68984794F8280010F0020F08BF666953
:1031A00005D0BDE8F88F304608F067F9064630468E
:1031B00008F04AF910B1002E64D0F4E7002E61D077
:1031C000304608F03CF900285CD0217F11F0010F57
:1031D00017D1228AA089104400B22082638AE28932
:1031E00000F109001A4412B2628212289CBF02F157
:1031F0000900122846D941F00100207710F0010F94
:1032000040D0A089002804BFE08900283AD0304689
:1032100008F06EF98346304608F070F9824609F0EE
:1032200079F90090E089B6F91090504402B2A08973
:10323000B6F91280584401B2304608F02FFAB6F9B8
:103240001000484504BFB6F91200404513D0207F56
:1032500010F0010F0AD0B3694FF00C0130463A6804
:10326000984794F8280010F0020F0BD1207F40F00F
:103270000201217706E009F04DF90099401A80B269
:1032800009F04CFA94F8280010F0020F06BF217FD5
:1032900011F0020FBDE8F88F10F0010F25D1206A60
:1032A0000BF080FDB0F5C87F12D9AB690A21284622
:1032B0003A68984794F8280010F0020F18BFBDE84C
:1032C000F88F40F0010084F828000BF079FD60626F
:1032D000207F10F0020F18BFBDE8F88F94F8280087
:1032E00010F0010F08BFBDE8F88F606A0BF05AFDBF
:1032F000642898BFBDE8F88FAB690B2128463A686F
:10330000984794F8280010F0020F18BFBDE8F88F16
:103310000BF056FD6062BDE8F88F0000040000204D
:103320002DE9F0470446007F4FF0000710F0040F2E
:1033300008D06761A761276220F0040067622077E8
:10334000BDE8F0874A4E606968B183690921326837
:10335000984794F8280010F0020F18BFBDE8F087D6
:10336000676127626762A569002D08BFBDE8F08725
:1033700094F8280010F0020F18BFBDE8F087207FF6
:1033800010F0020F05D1BDE8F087284608F075F867
:103390000546284608F058F820B1002D08BFBDE8C2
:1033A000F087F2E7002D08BFBDE8F087284608F057
:1033B00050F8002850D0B4F90C002E4A00EB8000E1
:1033C000000182FB00104111A1EBE07000B2A0816E
:1033D000B4F90E1001EB8101090182FB01214A11B0
:1033E000A2EBE17109B2E181002808BF002933D0C6
:1033F000284608F07DF8A18908440FFA80F928468C
:1034000008F07CF8E18908440FFA80F84246494602
:10341000284608F043F9284608F06AF8484504D1E0
:10342000A089002818BFBDE8F087284608F066F894
:10343000404504D1E089002818BFBDE8F087207F0F
:1034400020F002012177A781E781AB690D21284691
:1034500032689847BDE8F087207F20F0020121778D
:10346000AB690D21284632689847BDE8F087000017
:10347000040000201F85EB512DE9F04184B00020AD
:1034800005F0D0FEDFF8D48104004FF0000518BF2E
:1034900002277CD0C8F8004094F8340010F0020FE6
:1034A00013D02562656294F8280020F0030184F8A7
:1034B000281094F83400E562256320F00101A5830B
:1034C000E58301F0FD0184F8341094F8340010F025
:1034D000040F57D16946204605F0ACFE06469DF81C
:1034E00004002073012802D10BF06AFCA06320784D
:1034F000012804D002284FD0032879D027E0E06BC0
:1035000078B1B4F91420BDF900108A4205D1B4F99C
:103510001620BDF902309A4203D0BDF9022008F00E
:10352000BDF8BDF800102182BDF802106182207B39
:10353000012804D104F10C00FFF7A4FD03E004F11D
:103540000C00FFF7EDFE218AA182618AE18294F8E6
:10355000340010F0020F13D02562656294F8280041
:1035600020F0030184F8281094F83400E562256304
:1035700020F00101A583E58301F0FD0184F83410FA
:10358000002EA7D1204605F04DFE040082D1C8F8D8
:10359000005004B0BDE8F081E06B0028D7D09DF862
:1035A0000410012905D0002904BF217C012920D065
:1035B0002EE0207C48B1012801BF00980A2894F829
:1035C000340010F0010F04D022E00BF0F9FBE062B0
:1035D0001EE0E06A0BF0E6FBB0F5C87F18D90E21BB
:1035E000E06B05F0C2FB94F8340040F001010DE0FF
:1035F0001AE061690091092910D00B2911D005F05A
:10360000B4FBE56294F8340020F0010184F8341032
:103610009DF8041021740099616198E705F0F9FAAA
:10362000EFE705F02CFBECE7E06B009930F82100A8
:103630002082E06B009907EB8101405E6082B4F963
:103640001410B4F91020914201BFB4F91610814250
:103650009DF8040001287FF472AF6BE7040000209E
:103660002DE9F0410C460746011D002604F110002B
:1036700000F0B0F910B3201D06F0C2FF05000BD01A
:1036800001463846FFF7ECFF060017D12946201DFA
:1036900006F0BCFF0500F3D1204607F0C4FE68B178
:1036A00025000AD0284607F0E3FE08B12DB105E059
:1036B000284607F0E2FE0500F4D126463046BDE874
:1036C000F081000010B5034CA06807F0CBFD00208E
:1036D000A06010BD00040020F8B5244C606807F01D
:1036E000CCFE07F0CAFE0646A068002720B107F00E
:1036F000B9FD3846A760F8BD0021304605F074FEDC
:10370000A060304607F0AEFE0546304608F0AAFA43
:1037100007F0E8FE05EBD57201465210A06808F0EC
:1037200023F80097D4E9011000230D2207F0DAFAFC
:10373000D4E9011005F000FF0D4A0021A06805F052
:10374000E1FE0C4A0121A06805F0DCFE0A4A0221D4
:10375000A06805F0D7FE0949A06805F0C7FE074933
:10376000A06805F0C9FE0120F8BD0000000400209B
:103770005C8A0120988A0120D48A0120C536000085
:1037800070B5074C05460A2160680AF02DF82846F6
:1037900006F09AFD014660680AF07EF8012070BDCF
:1037A0000004002070B50E46054607F057FE04469B
:1037B00057A13046FCF74BFD00283CD055A13046C0
:1037C000FCF745FD00283CD053A13046FCF73FFDF7
:1037D00000283CD051A13046FCF739FD00283CD0F0
:1037E0004FA13046FCF733FD002844D0A06A00B357
:1037F0004CA13046FCF72BFD002841D04BA13046B0
:10380000FCF725FD002840D049A13046FCF71FFDFC
:1038100000283ED047A13046FCF719FD78B346A1F9
:103820003046FCF714FD0028A06A3AD031460AF071
:1038300033F8012070BD4149284600F00BFF0120FC
:1038400070BD3F49284600F005FF012070BD3D498D
:10385000284600F0FFFE012070BD616B11B12846C3
:10386000884706E00021284605F066FE284607F056
:10387000F9FC002070BD216B0029F3D0EFE70CE0CC
:103880000A21A06A09F0B0FFD3E7A06A0AF062F942
:10389000CFE7A06A0AF06DF9CBE7A06A0AF075F9E4
:1038A000C7E70AF0CDF90546A06A0AF0D4F9007816
:1038B0002D280FD02B28A06A1AD000210AF0B0FBC7
:1038C0002D21A06A09F090FF691C09B2A06A0AF0D4
:1038D000A7FBAEE70121A06A0AF0A2FBA06A0AF0EA
:1038E00054F92B21A06A09F07FFF29B2A06AEEE704
:1038F00001210AF095FBA06A0AF047F92D21A06A80
:1039000009F072FF29B2A06A0AF08AFB91E7000071
:10391000616263004142430031230000EF80840074
:10392000EF808300456E746572000000EF809700A1
:10393000EF80980044656C002B2F2D00EC000020D8
:103940009C0100204C020020B0F90410B0F90020C6
:10395000891AB0F90620B0F90200101A401C491C5F
:1039600048437047B0F90030B1F900C00022634508
:1039700012DBB0F90230B1F902C063450CDBB0F9DB
:103980000430B1F904C09C4506DBB0F90600B1F97A
:1039900006108142A8BF012210467047B0F90020EE
:1039A000B1F904309A4213DCB0F90420B1F90030C7
:1039B00093420DDCB0F90220B1F906309A4207DCDF
:1039C000B0F90600B1F902108842A4BF0120704787
:1039D00000207047B1F90020B0F900C00023624513
:1039E000A4BFB0F904C0944509DBB1F90210B0F9E5
:1039F00002209142A2BFB0F9060088420123184676
:103A00007047B1F90030B2F900C06345A8BF634602
:103A10000380B1F90230B2F902C06345A8BF634622
:103A20004380B1F90430B2F904C06345D8BF63469E
:103A30008380B1F90610B2F906209142D8BF114631
:103A4000C1807047DDF800C0018042808380A0F80B
:103A500006C070474288491E1144C180704710B4A7
:103A60008388B0F800C04488A3EB0C0303F1010C79
:103A7000C38801804280ACF10102114481804188F9
:103A80001B1B1944C18010BC70470288491E114499
:103A90008180704730B4B1F90030B2F900C063459D
:103AA000D8BF63460380B1F902C0B2F90240A44511
:103AB000D8BFA446A0F802C0B1F90440B2F904503E
:103AC000AC42A8BF2C468480B1F90610B2F906209A
:103AD0009142A8BF1146C1800120A34203DC614589
:103AE000A4BF30BC7047002030BC704770B50E4694
:103AF00007F0F8FA050003D0314C606808B104E023
:103B0000FEE7284607F0BBFC6060206818B928462D
:103B100007F093FC20600C21284607F0D4FA04003B
:103B200024D0002060806421A18020802548A060EE
:103B30002549284607F016FE2449284607F05DFD72
:103B4000AEB1304607F08AFC418861808188A1804F
:103B5000018821808068A060284607F039FDB4F90B
:103B60000010284600F006F9284670BDFEE7002147
:103B7000284607F03BFD2122C821284607F0F4FD26
:103B8000B4F90010284600F0F5F80BF005F9040030
:103B900010D02846E66B07F061FC3146284607F056
:103BA00017FE246C284607F059FC8460284607F06D
:103BB00001FDD9E70649284607F00AFED4E70000D0
:103BC000A800002090090020AD3D0000D53B00007A
:103BD0005409002070B50546344882B00E4603688B
:103BE000022A01D02AB15DE002B02846BDE870404B
:103BF000184728469847284607F030FC04462846D0
:103C000007F02CFC826869692869CDE90001118BF5
:103C1000BDF80000BDF80430084400B2A3EB010C6D
:103C2000ADF80000ADF804C0BDF80210D38AACEBCB
:103C3000000C1944ADF80210BDF80630D58A0CF11D
:103C4000010C5B1B1BB2591A491C0FFA8CFC0DB2FC
:103C5000ADF80630AC4511DBB4F90030B4F9021010
:103C60005B1A03FB0CF3B4F904C0ACEB010193FB4A
:103C7000F1F10844401EADF804000FE0B4F9001063
:103C8000B4F90200B4F904C0091A6943ACEB0000AE
:103C900091FBF0F0181A401CADF80200314668465E
:103CA00002F098FE02B0012070BD0000A8000020C4
:103CB00010B507F0D3FBB0F9040010BD10B507F044
:103CC000CDFBB0F9020010BD70B50C46054607F0FB
:103CD000C5FB24B1012C0CBF8068002070BD2846B4
:103CE000BDE8704007F0CEBB10B507F0B7FBB0F9E8
:103CF000000010BD2DE9F04115460E46074607F0BD
:103D0000ADFB0446B0F90200B04202BFB4F90400B2
:103D1000A842BDE8F081A5806680B4F90000A84201
:103D200004DD25802946384600F024F8B4F9000067
:103D3000B04204DA26803146384600F01BF8384697
:103D4000BDE8F04107F0E0BB70B515460C460646ED
:103D500007F084FB44B1012C18BF70BD856030466C
:103D6000BDE8704007F026BC29463046BDE87040EB
:103D700007F02EBD70B50C46054607F06FFBB0F995
:103D80000010A14208BF70BDB0F90410A142B8BF35
:103D90000C460480B0F902108C42B8BF0C46048077
:103DA0002846BDE8704007F0AFBB00002DE9F041A8
:103DB000154B14460F465B68064698470546012892
:103DC00018BFBDE8F081042F04D0052F08BF0021E3
:103DD0000CD015E0304607F041FB8068B6F9321090
:103DE000B0F912008842C8BF708609E054F821007B
:103DF00018B1481CC1B20729F8D304A044F8210027
:103E00002846BDE8F0810000A80000206C765F62C3
:103E1000617200002DE9F0410D46074601F01CFCDF
:103E2000060003D03B4C206808B104E0FEE73046B2
:103E300007F025FB20602C21304607F044F90400F0
:103E40003BD0002084F82800A0606060E060206122
:103E5000314860613148A0613148E06131482062F9
:103E60003148606294F82900304920F0030084F85A
:103E70002900304607F076FC05B3284607F0EEFA35
:103E800090F8281084F8281090F8291014F8292F99
:103E9000001D61F3000204F82529B0E80E10A4E823
:103EA0000E10B0E80E10A4E80E1000682060304636
:103EB00007F08EFB3046BDE8F081FEE71FB101211F
:103EC000304601F0A7FF0121304607F08FFB0AF0D2
:103ED00063FF050019D000213046EA6800F05AF867
:103EE000012130462A6900F055F8022130466A69FE
:103EF00000F050F803213046AA6900F04BF8042185
:103F00003046EA6900F046F8D4E73046616907F0C8
:103F10005FFCCFE7B0000020CC090020080A002099
:103F2000440A0020800A0020BC0A0020D53F00007F
:103F3000042924BF0020704710B50C4607F08EFA04
:103F400000EB8400406810BD10B507F087FA90F8C8
:103F5000280010BD042928BF704770B515460C46CF
:103F600007F07CFA00EB8400456070BD70B50C462C
:103F7000054607F073FA90F82810A14208BF70BDFB
:103F800080F8284000EB840041692846BDE8704075
:103F900007F01EBC70B514460D46064607F05EFAE3
:103FA000052D0DD2DFE805F0030507090B0044617C
:103FB00006E0846104E0C46102E0046200E044625F
:103FC00090F8281000EB810041693046BDE8704050
:103FD00007F0FEBB2DE9F047A44B92460E461B6846
:103FE000074698478146012818BFBDE8F087384644
:103FF00007F034FA0446384607F030FA90F82850B3
:10400000384607F02BFA90F82900062E00F0010838
:1040100012D0082E2CD0072E32D0092E3CD00A2EDA
:1040200073D00B2E72D0102E71D0052E08BF002039
:1040300000F00F8100F017B994F8280010B10228A1
:1040400005D008E001213846FFF790FF03E0032187
:104050003846FFF78BFF94F8290020F0020084F81F
:104060002900A168002918BF042D00F0FC806BE036
:1040700094F8280001284BD003284FD000F0F3B863
:10408000504605F0C1F8002847D094F828000128D0
:104090003ED0032842D0E6E0504605F0B5F80028AF
:1040A00004BF94F8290010F0020F06D094F82800FD
:1040B00001282DD0032831D0D5E094F8280001281C
:1040C00006D0032808D001280AD0032810D016E013
:1040D000B8F1000F07D10EE0B8F1000F0BD102E0EC
:1040E000B8F1000F0BD002213846FFF73FFF06E082
:1040F000B8F1000F03D000213846FFF737FF6168A1
:10410000002918BF042D08D01EE00CE017E01FE0C6
:104110004FF000013846FFF729FFA4E0022138469E
:10412000FFF724FF9FE0E168002918BF042D60D04D
:1041300094F8290040F0020084F8290004E0216985
:10414000002918BF042D54D03846884781468AE09C
:104150009AF80000132818BF112808D0142818BF97
:1041600012281BD00A282FD00E2863D07BE03846B7
:1041700007F074F990F8290010F0010F03D0022124
:104180003846FFF7F3FE606898B3384607F066F9E3
:1041900090F82800042866D06168D5E7384607F013
:1041A0005DF990F8290010F0010F03D00021384686
:1041B000FFF7DCFE6068E0B1384607F04FF990F891
:1041C000280004284FD0E7E794F8290010F0020FE8
:1041D0002BD1384607F042F990F8290010F0010F72
:1041E0001BD03DB1012D0AD0022D0DD0032D10D0D2
:1041F00013E038E002213846FFF7B8FE0DE0032156
:104200003846FFF7B3FE08E000213846FFF7AEFE60
:1042100003E001213846FFF7A9FE6168002918BFB5
:10422000042D02D038468847814694F8290020F0B2
:1042300002000BE0E168002918BF042D13D03846B6
:104240008847814694F8290040F0020084F829004C
:1042500009E05AF8201019B1401CC0B20728F8D361
:1042600003A14AF820104846BDE8F087B0000020BE
:104270006C765F62746E00002DE9F0410D4606F029
:1042800031FF060003D0474F786808B104E0FEE72D
:10429000304607F0F4F878602821304606F013FF26
:1042A000040017D0002020844FF6FF716184A184A0
:1042B0006060A060206084F826003B48E0603B48D6
:1042C00020613B4860613B48A0613B48E061386841
:1042D00008B104E0FEE7304607F0AFF83860374930
:1042E000304607F03FFA3649304607F086F905B305
:1042F000284607F0B3F800F10C0104F10C0791E82F
:104300000E1087E80E10C169E1618168A16090F824
:10431000261001F0010184F82610808CA084284624
:1043200007F09CF80168304600F094F93046BDE88B
:10433000F08178224FF4C871304607F015FA214910
:10434000304600F087F90AF027FD040024D0002150
:104350003046D4F8842000F09BFA01213046D4F88E
:10436000882000F095FA02213046D4F88C2000F025
:104370008FFA03213046D4F8902000F089FA042106
:104380003046D4F8942000F083FA05213046D4F862
:10439000982000F07DFAC9E70B49304607F018FA7B
:1043A000C4E70000B4000020CC090020080A002067
:1043B000440A0020800A0020BC0A0020294900008D
:1043C000CD430000BC000020540900202DE9F74F28
:1043D0008A488AB0022A036801D032B141E0DDE99F
:1043E0000A010DB0BDE8F04F1847DDE90A01984712
:1043F0000A9807F033F804460A9807F043F8089043
:1044000004A90A9807F014F84FF00008208C4646DB
:104410004546002888BF4FF0000B22D9206878A1BC
:1044200050F82500FBF713FF48B9681C85B22068D7
:1044300073A150F82500FBF70AFF0028F5D020688B
:1044400050F82500007800F0C00180290DD110F04F
:10445000080F0AD0701C86B2681C85B2208CB0424E
:10446000DCD80DB00120BDE8F08F6068BDF81030D9
:1044700000EBC60001684068CDE90610BDF81800E1
:10448000BDF81CC0C218ADF81820BDF81A00BDF860
:1044900012106344ADF81C300844BDF81EC0ADF8DE
:1044A0001A006144081A401CADF81E100FFA80F97A
:1044B00020689A1A521C50F825000FFA82FA0078E8
:1044C00000F0C001802908D110F0200F05D005218F
:1044D0000A9800F09CF807462CE0608CB0421CBFA4
:1044E000A18CB14221D1B04208D1A18CB14205D0FA
:1044F00002210A9800F08BF807461BE0B04208D072
:10450000A18CB14205D103210A9800F080F807463A
:1045100010E0B04204BFA08CB04206D14FF00401BD
:104520000A9800F074F8074604E001210A9800F0A8
:104530006EF807460420216800EB850008580078D3
:10454000002818BF0A2806D1B87B082804BF87F8BE
:104550000EB04FF001083A4606A80B9902F03AFA5D
:10456000B8F1000F03D008204FF00008B873BDF871
:104570001400BDF810107A6A401A401CB7F92A10CE
:1045800000B2CDE90010CDF808B02068B7F92830A6
:1045900050F8251003A80AF02BFDBDF90C30BDF82A
:1045A0001810AAEB030000EBD07001EB6000ADF82F
:1045B0001800BDF90E20BDF81AC0A9EB020101EBED
:1045C000D1710CEB61011844ADF81C008818ADF8EE
:1045D0001A10ADF81E00387810F0010F18BF089FB0
:1045E000CDF800B0CDF804B020683A460B9950F8E9
:1045F000253006A801F002FD2CE70000B4000020E1
:104600000A00000010B506F029FF006810BD70B563
:104610000C46054606F022FF062C13D2DFE804F014
:1046200003080A0C0E102846BDE8704006F02ABFA9
:10463000C06870BD006970BD406970BD806970BDA3
:10464000C06970BD002070BD10B50C4606F006FFB5
:10465000846010BD002908BF70472DE9F34F87B073
:104660000D46079806F0FAFE0390056000263446D2
:10467000079F2868FBF7E4FD80B155F8240083A16B
:10468000FBF7E5FD00281CBF701C86B2601C84B2DD
:1046900055F82400FBF7D4FD0028EED1384606F08B
:1046A000DDFE0446406818B106F080FA0020606024
:1046B000F00006F025FA6060268400210798FFF7D5
:1046C000A6FF8146079806F00DFFB9F81810494279
:1046D00000EB410000B20690079806F0C3FEB9F95E
:1046E00016B00126CBF1000100EB410000B20290B0
:1046F00000242868FBF7A4FD80B155F8240063A1CD
:10470000FBF7A5FD002804BF701CC6B2601CC4B234
:1047100055F82400FBF794FD0028EED1B9F91A20D2
:104720000298C6F1010101FB020000B290FBF6F015
:10473000401E00B2002701904FF00008444653A1EC
:1047400055F82400FBF783FDA0B155F82400FBF7D2
:1047500077FD78B155F82400007800F0C001802979
:104760000CBF00F00700012040441FFA80F8601CD5
:1047700084B2E4E7002C63D0B9F91A200698C4F19A
:10478000010101FB020000B24FF0000A56460590FD
:1047900056D90198584400B2049055F82600007884
:1047A00000F0C00180290CBF00F00700012005992E
:1047B00010FB01F00AFB01F190FBF8F091FBF8F11E
:1047C000B9F91820B9F91A30401E06FB032C6144D0
:1047D00000B209B2ABB98A4213D0049A0092039A8C
:1047E0006FF0030303EBC7035268084402EBC70CE6
:1047F00032F903E003B25A4671466046FFF722F9E8
:104800000BE0049A0092039A084403B2526802EB48
:10481000C70C5A466046FFF715F955F82600007890
:1048200000F0C00180290CBF00F0070001205044B7
:104830001FFA80FA781C87B2701C86B2A642ACD3ED
:104840000198B9F81A10584408440FFA80FBB9F8D7
:10485000160050B901980BEB40010298814204DD2B
:10486000A0EB0B00401E00B2019055F82400FBF7AE
:10487000E7FC00281CBF05EB8400051D7FF45CAF3E
:10488000079809B0BDE8F04F06F03EBE0A000000F0
:1048900070B514460D46064606F0E0FD062D28BF0D
:1048A00070BDDFE805F003090F151B2121463046D6
:1048B000BDE8704006F08CBFC4603046BDE8704073
:1048C00006F022BE04613046BDE8704006F01CBE12
:1048D00044613046BDE8704006F016BE8461304643
:1048E000BDE8704006F010BEC4613046BDE87040BF
:1048F00006F00ABE70B514460D46064606F0AEFD3B
:1049000080F8265015F0010F04BF4FF6FF71818427
:1049100005D0018CA1429CBF491E8CB284843046D4
:10492000BDE8704006F0F0BD2DE9F04F89B091462A
:104930000D460746FE4B5B689847804601281CBF22
:1049400009B0BDE8F08F384606F088FD0446D5B1C1
:10495000032D18BF022D1BD04FF6FF76072D1DD05B
:104960000B2D7DD0092D7CD0082D18BF0F2D00F008
:1049700046814FF0000A0E2D00F04681102D00F008
:10498000498100F0F8B9406806F010F900F0F3B979
:1049900001683846FFF75EFE00F0EDB908A9484609
:1049A00004F000FC0DF1200B384606F057FD82465E
:1049B00006A9384606F03CFDBAF82000002500287C
:1049C0002AD9DAF8040000EBC50001684068CDE997
:1049D0000410BDF81010BDF818000144ADF8101017
:1049E000BDF81220BDF81A100A44ADF81220BDF827
:1049F00014201044ADF81400BDF816000844ADF8BA
:104A00001600594604A8FEF7E5FF28B9681C85B2D0
:104A1000BAF82000A842D4D8BAF82000A84208BFAB
:104A20004FF6FF756946384606F002FD608CA842D5
:104A30004ED0484604F029FC608CB04224D0616816
:104A400001EBC00001684068CDE90210BDF8081014
:104A5000BDF800000144ADF80810BDF80A2001E0DF
:104A600039E05DE0BDF802100A44ADF80A20BDF857
:104A70000C201044ADF80C00BDF80E000844ADF851
:104A80000E0002A804F05EFCB54221D0606800EB85
:104A9000C50001684068CDE90210BDF80810BDF8F6
:104AA00000000144ADF80810BDF80A20BDF802105E
:104AB0000A44ADF80A20BDF80C201044ADF80C00F3
:104AC000BDF80E000844ADF80E0002A804F03AFC50
:104AD000658400F050B9A06800281CBF618CB14209
:104AE00000F049813846FEF765FAB04200F0438194
:104AF000216851F82010087800F0C002802A03D104
:104B000010F0100F40F03781802A03D110F0200FF1
:104B100040F03181802A40F02B81491C00F028B9F7
:104B2000618CB14200F02781A068A8B13846FEF739
:104B300041FAB04210D0216851F820100A7802F0F2
:104B4000C000802802D112F0200F05D1802808BFB4
:104B5000491C3846A26890476946384606F068FC0A
:104B6000618C606800EBC10001684068CDE902100B
:104B7000BDF80810BDF800000144ADF80810BDF8FC
:104B80000A20BDF802100A44ADF80A20BDF80C2036
:104B90001044ADF80C00BDF80E000844ADF80E004E
:104BA00002A804F0CFFB94F8260010F0010F24D0E7
:104BB000A18C606800EBC10001684068CDE902107B
:104BC000BDF80800BDF800100844ADF80800BDF8B5
:104BD0000A20BDF802000244ADF80A20BDF80C20FE
:104BE0001144ADF80C10BDF80E100844ADF80E00DD
:104BF00002A804F0A7FB608CA0846684BBE0468416
:104C0000384606F081FCB6E0A0F822A0384606F04F
:104C10007BFCB0E099F8000013280DD014281BD0BD
:104C200002254FF0040912281ED011284FD00A285F
:104C300018BF0E287ED09EE0608CB0421ABF401C88
:104C40006084A4F822A0618C208C401E81427CDA12
:104C5000384606F059FC8EE0608CB04240D0002807
:104C60001CBF401E6084F3E700213846FFF7CFFCED
:104C70008446608CB04233D0616801EBC0029388F7
:104C800012889B1A5B1C1BB202EB6302238C12B2CC
:104C9000834219D905EBC0068E5F05EBC00A31F9D6
:104CA0000AA0B2450CDD31F930A0924508DC09EBD1
:104CB000C00A31F90AA0BCF918B0DA44924503DA07
:104CC000401C80B28342E8D88342C1D93DE0002134
:104CD0003846FFF79CFCB4F822C00346B44502D125
:104CE000A4F822A0B4E7616801EBCC0082880088B8
:104CF000121A521C12B200EB620002B2B4F9220086
:104D00000028A4BF05EBCC0C31F90CC0A0DB05EBEF
:104D1000C0068E5F664511DA31F93060B3F918A02C
:104D2000A6EB0A06B24209DB09EBC0068E5F03E080
:104D3000B40000200BE008E0964204DA401E00B206
:104D40000028E4DA84E7002882DB608480E7A0683A
:104D500088B1618C3846FEF72DF9B0420BD021683E
:104D600051F82010087800F0C00080283FF4D5AE3C
:104D7000A2683846904709B04046BDE8F08F73B549
:104D800006F06CFB044605F061FC0600B4F90C006B
:104D9000B4F90E1008444FEA600502BF002002B0CB
:104DA00070BDBDF80400B080608A400005F0A8FE28
:104DB0003060628A0021002A06D920F8025B491C73
:104DC000628A89B28A42F8D8207E401C207602B0DE
:104DD000304670BD2DE9F0410F4606F083F905001D
:104DE0001ED01C2106F06FF904001AD0082105F02E
:104DF00022FC00202076A0816420E0810320207422
:104E0000052060740A20608201202075FF206076F2
:104E10007F20A076234E0220E082306810B105E0AA
:104E2000FEE7FEE7284606F008FB3060706818B918
:104E3000284606F024FB70601B49284606F092FCC9
:104E40001A49284606F0D9FBC7B1384606F006FBDA
:104E5000017D01F0070121758189A181C189E1816D
:104E6000017C2174417C6174418A6182407E60765C
:104E7000284606F0ADFB2846BDE8F081A0224FF49D
:104E80008571284606F070FC09F086FF20B1816E1E
:104E9000284606F09DFCEEE70549284606F098FCFA
:104EA000E9E70000D800002079540000B54E00006A
:104EB000540900202DE9F74F98B00746022A02D086
:104EC00042B100F078BAFE4B19991B681BB0BDE8DF
:104ED000F04F184706F0D6FA024607F1100019996C
:104EE00001F078FD384606F0B9FA1290199804904E
:104EF000384606F0B3FA8046384606F0C3FA05464F
:104F0000384606F0EFFA0390384606F0ABFA029006
:104F100098F81060B7F91090B7F912A0002E3DD0A4
:104F2000A889002818BF4FF0010B02D18346701CDE
:104F3000C6B20398ADF800904844ADF804005C4652
:104F4000B3452BD8029898F810106043491C90FB89
:104F5000F1F0504400B2ADF802005C4507D1B5F95C
:104F60003620012101EB62010844ADF80200B44291
:104F700007D1B5F9361080B2A0EB6100401EADF844
:104F8000020080B2ADF806002B4601A96846049ADB
:104F900001F06CF9601CC4B2B442D3D998F8116026
:104FA000002E3FD0A889002818BF4FF0010B02D176
:104FB0008346701CC6B20298ADF802A05044ADF80A
:104FC00006005C46B34598BF4FF0010A2AD8039803
:104FD00098F811106043491C90FBF1F0484400B26E
:104FE000ADF800005C4506D1B5F936100AEB610159
:104FF0000844ADF80000B44207D1B5F9361080B2CC
:10500000A0EB6100401EADF8000080B2ADF80400D6
:105010002B4601A96846049A01F028F9601CC4B225
:10502000B442D4D91298007D10F0010F72D01998B3
:105030001190384606F012FA0446384606F052FA45
:105040008346384606F00EFA0646B7F91090B7F9CF
:1050500012A09C49684608F019F8607E8DF8380067
:10506000E08AADF83600204605F0DFFA5FEA000876
:1050700050D0B8F80400ADF83400ADF84090ADF869
:105080003C90D8F80000B4F90E200125B0F90010CA
:10509000B4F90C00091A7143101A91FBF0F0301AA0
:1050A0005044ADF83E00608A01282CD9BDF83C0080
:1050B000ADF84000BDF83E00ADF84200618A0BFB40
:1050C00005F0491E90FBF1F04844ADF83C00D8F8DB
:1050D0000000B4F90E206B4630F91510B4F90C003D
:1050E000091A101A714391FBF0F0301A5044ADF8D0
:1050F0003E000FA910A8119A01F0B8F8681C85B2FB
:10510000608AA842D2D84146204605F087FA5FEA75
:105110000008AED11298007D10F0020F7ED01998D1
:105120001790384606F09AF90446384606F0DAF940
:105130000F90384606F096F98246207E411C608A20
:1051400041430F9890FBF1F00FFA80FB0BEBDB7003
:10515000401016905B49684607F098FF0021ADF8B3
:105160000C108DF81C10ADF80610607E8DF808004C
:10517000F88AADF84600608A0E46002878D90F9864
:10518000618A704390FBF1F016993A8A0844104402
:105190000FFA80F9204605F048FA050018BF4FF0D5
:1051A000000860D0A888ADF80200A988A07E8AB265
:1051B000D30AC0F1FF0113FB01F34FEAD82C1CFB0B
:1051C00000334FEA132CBDF84C306CF3CF23C2F3FD
:1051D000451C1CFB01FC4FEA581E1EFB00CC4FEA8D
:1051E0001C2C6CF34A1302F01F0212FB01F118FB96
:1051F0000010000A60F30403ADF84C3098B213902D
:10520000BDF84C00ADF80400ADF8409009EB0B0080
:105210000FFA80F9ADF84490286800E028E030F9F2
:105220001610B4F90C00B4F90E20091A01FB0AF1AA
:10523000101A91FBF0F0AAEB0001788A10AA08443A
:10524000ADF8420014A81799FEF724FC28B16A466D
:1052500014A907F1100001F0BDFB2946204605F016
:10526000DDF905009ED1701C86B2608AB04286D8F6
:105270001298007D10F0040F7DD0199812903846D6
:1052800006F0ECF80446384606F02CF9814638461C
:1052900006F0E8F80646B7F91080B7F912A00949F8
:1052A000684607F0F3FE002743F6FF70ADF80C7078
:1052B0008DF81C70ADF80600607E8DF8080003E0E4
:1052C000D8000020DC080020E08AADF80600204667
:1052D00005F0ABF905006ED0A888ADF80200A988EA
:1052E000A07E8AB2D30AC0F1FF0113FB01F34FEA9B
:1052F000D72C1CFB00334FEA132CBDF83C306CF369
:10530000CF23C2F3451C1CFB01FC4FEA571B1BFBC0
:1053100000CC4FEA1C2C6CF34A1302F01F0212FB64
:1053200001F117FB0010000A60F30403ADF83C30F4
:1053300098B20F90BDF83C00ADF80400608A4FF0C1
:10534000000B002831D9618A09FB0BF0491E90FB44
:10535000F1F000EB0801BDF806000A18091AADF8D3
:105360004420ADF84010296831F91B20B4F90C1025
:10537000521A724300E01EE0B4F90E30591A92FB43
:10538000F1F1711A51440A18081AADF84620ADF827
:1053900042006A4610A8129901F01CFB0BF10100B3
:1053A0001FFA80FB608A5845CDD82946204605F073
:1053B00035F9050090D11BB00120BDE8F08F70B524
:1053C00016460C46054606F049F8418A0023491E58
:1053D0000029C8BF02210DDDD4F800C001EB430253
:1053E0003CF802202CF813205A1C93B2428A521E19
:1053F0009A42F1DC408A21686FF0010202EB400022
:105400000E522846BDE8704006F07EB870B51446CE
:105410000D46064606F022F8B0F90C10A94202BF6C
:10542000B0F90E10A14270BD8581C4813046BDE83F
:10543000704006F069B870B50C46054606F00EF8E7
:10544000417EA14208BF70BD44762846BDE8704049
:1054500006F05AB870B50C46054605F0FFFF017D11
:1054600001F00701A14208BF70BD04752846BDE8E0
:10547000704006F049B800002DE9F041194B144680
:105480000E465B68074698470546012818BFBDE8E9
:10549000F08126B1052E08BF002015D01EE0384649
:1054A00005F0DCFF064605F0ABF8040008D02068E4
:1054B00005F07CFB2146304605F0A8F80400F6D143
:1054C000304605F083F809E054F8201019B1401C6B
:1054D000C0B20728F8D304A144F820102846BDE83C
:1054E000F0810000D80000206C765F636861727400
:1054F00000000000B0F90210B0F900008142D4BFF2
:10550000012000207047028000234380C2F1010087
:105510000880704742884FF0010C521C12B2428042
:10552000B1F90030002BDCBF0CEB4200184407DD62
:1055300003885B1E0380D01A0A880CEB40001044DD
:105540000880704738B48BB24FEAD32CC2F1FF0108
:105550001CFB01FC80B2C40A14FB02CC4FEA1C24E1
:10556000BDF800C064F3CF2CC3F3451414FB01F461
:10557000C0F3451515FB0244240A64F34A1C03F0EA
:105580001F0313FB01F100F01F0010FB0210000AC3
:1055900060F3040CADF800C038BC1FFA8CF0704703
:1055A00038B48BB24FEAD32CC2F1FF011CFB01FCD3
:1055B00080B2C40A14FB02CC4FEA1C24BDF800C020
:1055C00064F3CF2CC3F3451414FB01F4C0F3451569
:1055D00015FB0244240A64F34A1C03F01F0313FB67
:1055E00001F100F01F0010FB0210000A60F3040C30
:1055F000ADF800C038BC1FFA8CF0704738B48BB2DD
:105600004FEAD32CC2F1FF011CFB01FC80B2C40A9B
:1056100014FB02CC4FEA1C24BDF800C064F3CF2C6D
:10562000C3F3451414FB01F4C0F3451515FB024404
:10563000240A64F34A1C03F01F0313FB01F100F07A
:105640001F0010FB0210000A60F3040CADF800C04C
:1056500038BC1FFA8CF0704770B50E4605F042FD5D
:10566000050003D01F4C206808B104E0FEE728467F
:1056700005F005FF20600121284605F024FD28469D
:1056800005F0ECFE04001FD02078174920F03F0001
:105690002070284606F066F8BEB1304605F0DEFE02
:1056A00001780A09217862F3041121700278520905
:1056B00062F345112170007860F3030121702846E0
:1056C00005F086FF284670BDFEE709F065FB20B1B6
:1056D0008168284606F07CF8F4E70449284606F07D
:1056E00077F8EFE7E0000020415E00005409002059
:1056F00010B505F0B3FE0078C0F3001010BD2DE921
:10570000F04385B0044605F0A9FE0646007810F087
:10571000300F04BF05B0BDE8F083204605F0B2FEAF
:10572000B0F91880B0F9167002A9204605F080FE85
:105730006946204605F07CFE43F6FF796FEA0900D2
:10574000ADF80400ADF80090ADF80600ADF8029099
:10575000201D04F055FF050008D005F089FE48B370
:105760002946201D04F052FF0500F6D1BDF90000C6
:10577000484504BF05B0BDE8F083317811F0100F43
:105780000CBF208AA0EB0800ADF800000EBFA08A75
:10579000BDF804004044ADF80400307810F0200F4C
:1057A0002DD0BDF80200C01BADF80200BDF8060008
:1057B000384428E0BDF90000B5F910108842A8BFB0
:1057C0000846ADF80000BDF90200B5F91210884294
:1057D000A8BF0846ADF80200BDF90400B5F91410E1
:1057E0008842D8BF0846ADF80400BDF90600B5F9F7
:1057F00016108842D8BF0846ADF80600B0E7608AA8
:10580000ADF80200E08AADF80600B4F91000BDF969
:105810000010884214D1B4F91200BDF90210884278
:105820000ED1B4F91400BDF90410884208D1B4F9BE
:105830001600BDF90610884204BF05B0BDE8F0832C
:10584000204605F061FEDDE900122161626120461B
:1058500005F05AFEA36902AA022120469847204675
:1058600005F00BFE836922460121984705B0BDE88B
:10587000F08300002DE9F04F83B0804605F0EEFD87
:105880000078002100F00F04404605F0BEFD00281E
:1058900012BF002C03B0BDE8F08F012C5CD0022CAD
:1058A0001CBF032C042C7DD0052C1CBF062C072C00
:1058B00000F00681082C00F04E81092C1CBF03B0BB
:1058C000BDE8F08FC146404605F0DCFD074648467E
:1058D00005F008FE06460021484605F096FD05F055
:1058E00001FE04460021484605F08FFD05F0BAFD93
:1058F0000246B7F91800404206EB4001B7F91A001A
:10590000031991FBF3F39DB2012D81BF05FB141127
:105910006B1E91FBF3F121449FBF06EBD67149103A
:1059200004EBD473A1EB63010FFA81FA104400B2C7
:1059300000900121484605F00FFFB7F91860B7F94C
:105940001680002409F1040004F06FFE5FEA000BEA
:1059500040F0088200F030BA404605F093FD06465C
:105960000024254608F1040004F04AFE070004BFA5
:1059700003B0BDE8F08F05F07BFD60B90421384627
:1059800005F012FE38B9384605F06CFD718B2844DD
:10599000084405B2641C394608F1040004F036FEE0
:1059A000070000E03FE0E6D1002C04BF03B0BDE8F3
:1059B000F08F708B0121281A04B2404605F0CCFE0E
:1059C00004EBD4704010404204B208F1040004F02B
:1059D0002CFE050000F0BF8105F04AFDD0B904217E
:1059E000284605F0E1FDA8B9284605F03BFD00EB8F
:1059F000D07004EB600000B2002300901A464146CC
:105A0000284605F06FF9284605F02CFD718B2044DF
:105A1000084404B2294608F1040004F0FFFD050023
:105A2000DAD100F098B9404605F018FD007800F092
:105A30000F04404605F026FD0546022C08BFB5F9C7
:105A4000187008D0032C04BF0027022604D0042CB1
:105A500018BF002712D001260121404605F07CFE28
:105A6000B5F9164008F1040004F0DFFD5FEA000913
:105A700000F0718105F0FCFCC0B904E0288B4042C5
:105A800007B20326E8E70421484605F08DFD68B912
:105A90003B46324641464846009405F023F94846C5
:105AA00005F0E0FC698B2044084404B2494608F143
:105AB000040004F0B3FD5FEA0009DBD100F04BB94C
:105AC000404605F0CBFC007800F00F05404605F09D
:105AD000D9FCB0F916400646052D08BF01270CD0A9
